:020000040800F2
:10000000C4D100103F020008890100086D040008F7
:100010008D0100088F010008910100080000000018
:100020000000000000000000000000009301000834
:10003000950100080000000055210208A1200208D7
:100040009B0100089D0100089F01000881390108FB
:10005000A3010008A5010008E1DA0108FDDA0108A2
:1000600019DB010835DB010851DB0108B10100088B
:10007000B3010008B501000831D30108B901000837
:10008000BB01000829150008BF010008D5F10108CF
:1000900071F10108C5010008C70100086DDB010806
:1000A00089AC0108A5AD0108F9AD010839AA01081C
:1000B00021AD0108D501000861AB0108D901000894
:1000C000DB010008DD010008DF010008E101000894
:1000D000E3010008B91400084D150008BD1500081B
:1000E000E5DB0108ED010008EF010008F10100085F
:1000F000F3010008F5010008F7010008F901000804
:10010000FB01000895570108152B010801020008A2
:100110002D1600089D1600080702000809020008B5
:100120000B0200080D0200080F0200089957010891
:10013000295C00082DD4010839D4010819020008EF
:100140001B0200081D0200081F020008210200080F
:10015000230200080D170008951400083117000845
:100160002B0200082D0200082F02000831020008AF
:10017000330200083502000845D40108BD750008A7
:080180003B0200083D020008EB
:10018800FEE7FEE7FEE7FEE7FEE7FEE7FEE7FEE73F
:10019800FEE7FEE7FEE7FEE7FEE7FEE7FEE7FEE72F
:1001A800FEE7FEE7FEE7FEE7FEE7FEE7FEE7FEE71F
:1001B800FEE7FEE7FEE7FEE7FEE7FEE7FEE7FEE70F
:1001C800FEE7FEE7FEE7FEE7FEE7FEE7FEE7FEE7FF
:1001D800FEE7FEE7FEE7FEE7FEE7FEE7FEE7FEE7EF
:1001E800FEE7FEE7FEE7FEE7FEE7FEE7FEE7FEE7DF
:1001F800FEE7FEE7FEE7FEE7FEE7FEE7FEE7FEE7CF
:10020800FEE7FEE7FEE7FEE7FEE7FEE7FEE7FEE7BE
:10021800FEE7FEE7FEE7FEE7FEE7FEE7FEE7FEE7AE
:10022800FEE7FEE7FEE7FEE7FEE7FEE7FEE7FEE79E
:10023800FEE7FEE7FEE71348854620F01BFC4EF676
:100248008850CEF20000016851F47001016000BFCF
:1002580000BF00BFF1EE100A50F04070E1EE100A46
:100268004FF0000080F314884EF63C71CEF2000186
:10027800086850F04070086003480449016000F0C5
:1002880007B870470000022008ED00E000000008F1
:100298002C49072291438D462B482C492C4A00F0C3
:1002A8003EF82C482C492D4A00F039F82C482D49A5
:1002B8002D4A00F034F82D482D492E4A00F02FF829
:1002C8002D482E492E4A00F02AF82E482E492F4A4A
:1002D80000F025F82E482F49002200F02BF82E4870
:1002E8002E49002200F026F82D482E49091A08291F
:1002F80003DB00220260043001601D481D4988426A
:1003080005D00268043003B4904703BCF7E7002027
:100318008646EC4600200021234A9047FEE78842A3
:1003280007D0521A05D0037801300B700131013A19
:10033800F9D17047884202D002700130FAE770475D
:100348001A487047C4D10010500303080000002069
:100358003C070020B8030008B8030008D0D1020801
:100368008C0A03085882012058820120D0D1020843
:10037800D0D10208D0D10208D0D10208D0D10208C9
:10038800D0D10208D0D10208D0D102085003030806
:100398003C070020583A012000000010C4CD00108E
:1003A800583A012058820120B9030008FFFFFFFFD7
:1003B80038B516F063FA00F057FB4FF4A06026F04A
:1003C8006FF820F033FC4DF2D011C0F602014FF463
:1003D800C87000F049F941F2A42400F23C630546D4
:1003E800C2F2000449F20C0242F619400021C0F2A0
:1003F8000102C0F60100256021F058FC20F058FCED
:10040800002038BD4EF6FC52CEF200024FF4805365
:1004180011682DE9F041CEF2000341F080701060C0
:100428001D680E4E0E4C45F0010241F2040782B0E1
:100438001A600025CEF20007B04600F049F823689C
:10044800591C21603868451B0195019B326893420D
:1004580002D20199C8F800100546EEE70000002016
:100468003C07002008B502F077FCFEE770B54B08A2
:1004780082B00D46064625D00020441C5B08E0B239
:10048800FBD107281DD906F1047315330838590123
:1004980001EB80046846226026F03EFE022300221B
:1004A80030468DF805306946012300958DF8062001
:1004B8008DF804308DF8072026F086FD204602B01E
:1004C80070BD830006F10474143403EB4414E1E7AF
:1004D8002DE9F84FDFF8A880D8F80030002B38DD78
:1004E800254F002407F11A06254607F1620A07F18D
:1004F800320937F8020F00283AD054F80A100A785F
:10050800FF2A37D1002310F0010F0A4610D101232A
:10051800834210DA4978FF291A4409D00BE012F80F
:10052800011FFF2907D112F8011F0133FF2902D14A
:1005380001338342F3DB36F8020B9842C8BF26F832
:10054800023C0F2B07DDD8F8002001350434AA42FD
:10055800CFDCBDE8F88F06F05FFB40218346074AF1
:1005680059F804302AF0B0FB584606F067FBEAE772
:100578000346E0E70023DEE7FEFFFF0FD8D10208BD
:10058800480700202DE9F041104E3368002B07463C
:1005980019DD0025DFF838802C4603E030688442F6
:1005A800254610DA08EB85013846096B14222AF033
:1005B80033FC0134A4B20028F0D1054A02EB45050A
:1005C800288BBDE8F0810020BDE8F08148070020B5
:1005D8000000001038B500FB01F474B12AF010FBDC
:1005E800094B0A4A05461868116824188C421C6091
:1005F80088BF146025B1284638BD2546284638BD31
:10060800034806F01BFBF6E7400700204C070020D4
:10061800F8D1020838B50C46154630B12AF000FB6F
:10062800024B1A6804FB15241C6038BD40070020E3
:1006380038B50A4D01FB00F1CC1C2B68A408E01862
:10064800B0F5205F05D828600549021B01EB820040
:1006580038BD044806F0F2FA2868F5E74407002098
:100668009000001010D202082DE9F843174C8700BB
:10067800BEB225684FEA960808EB0500B0F5205F82
:1006880089461DD82060124CC8EB000104F1900384
:1006980003EB81053A46FF2128462AF083FD0D4ADF
:1006A800136804EB830104EB4307581C10600D66C4
:1006B80024F813603E83C1F830902846BDE8F883DB
:1006C800054806F0BBFA2068DDE700BF44070020B4
:1006D800000000104807002010D202084FF44062C2
:1006E800C4F200024FF47A71536A01FB0030536A76
:1006F8009842FCD8704700BF70B582B006F08CFAFB
:100708000446022002F098F90546012002F094F907
:100718000646002002F090F94DF22422019000963E
:1007280020464021C0F602022B462AF0CDFA204688
:1007380002B0BDE8704006F081BA00BF30B585B0A0
:1007480006F06AFA04461FF0B1F905461FF0AAF947
:1007580006230190029300204DF23C224DF26823BB
:100768000390009520464021C0F60202C0F602031D
:100778002AF0AAFA204605B0BDE8304006F05EBA75
:1007880070B584B006F048FA0446022002F054F925
:100798000646012002F050F90546002002F04CF907
:1007A8004DF2242240213346C0F602020190009502
:1007B80020462AF089FA204606F040FA06F02CFA7C
:1007C8000446002002F038F944F6D353C1F262031C
:1007D800A3FB00121309FA254DF2742205FB13033B
:1007E8004021C0F6020220462AF06EFA204606F0A2
:1007F80025FA06F011FA40F25071C2F200014DF6E6
:1008080083630A68C4F21B33A3FB02154DF28822E6
:10081800AB0C4021C0F6020204462AF055FA2046E5
:1008280006F00CFA40F2407406F0F6F940F24C710A
:10083800C2F20004C2F2000123680C684DF29C2247
:100848004021C0F60202054600942AF03DFA2846E7
:1008580006F0F4F906F0E0F940F24473C2F200033E
:100868004DF2B8221D68AB004FF420454021C0F678
:100878000202044600952AF027FA204606F0DEF91F
:10088800642021F051FB06F0C7F904461FF00EF969
:1008980005461FF007F900220190039206204DF249
:1008A8003C224DF268230290009520464021C0F674
:1008B8000202C0F602032AF007FA204604B0BDE897
:1008C800704006F0BBB900BFC0EE200A80ED011AE7
:1008D800C0ED000A704700BFC0EE200A80ED011A83
:1008E800C0ED000AC0ED020A80ED031AC0ED040A4B
:1008F80080ED051A704700BFD0ED017A90ED007ABF
:1009080030EE670A40EE077AB0EE670AC0ED017A6A
:10091800704700BFD0ED057AD0ED046A30EE670A63
:1009280090ED037A40EE267AD0ED020A37EEC76AD8
:1009380090ED010A06EE207A90ED001A77EE401A43
:10094800C0ED057A01EE810A80ED037A80ED010A97
:10095800704700BFF0B52DED048BB5EEC00AF1EE7F
:1009680010FA87B0B0EE408A04460E465ED40025E1
:10097800B0EE480A28F0F2FB40B1601937492AF076
:1009880049FC032007B0BDEC048BF0BDB0EE480A6B
:1009980028F0F8FB074600284ED1062E28BF062669
:1009A80007EE906AB2EE040AF8EEE70A29F058FC5E
:1009B800B5EEC08AF1EE10FABDEEC09A07DDB0EED2
:1009C800480A29F009FBBDEEC00A10EE107A00EEC5
:1009D800907AB2EE040AF8EEE00A29F041FC88EEBB
:1009E800008AB7EE001AB4EEC18AF1EE10FA29D4E3
:1009F800FDEEC88A32461A4902A82AF07BF9B8EEF9
:100A0800E82AB8EEC99A78EE422A02A922EE893A73
:100A180018EE902ABDEEC38A009718EE103A6019B6
:100A28002AF068F920462AF047FCABE72D2303702B
:100A3800B1EE408A01259BE760190A492AF0EAFBD2
:100A480003209FE7B5EE408AF1EE10FAD0D0F2EE1F
:100A5800041A28EE218A013FCAE700BFD0D2020853
:100A6800D8D20208D4D2020800B5012183B01F20D1
:100A780026F002FC684626F04FFB4FF48060032204
:100A88004FF6FF736946C4F202008DF80420009304
:100A980026F09AFA4FF400606946C4F2020026F084
:100AA80093FA4FF440606946C4F2020026F08CFACB
:100AB8004FF480506946C4F2020026F085FA0020FF
:100AC80049F6FF736946C4F20200009326F07CFAE7
:100AD80001214FF4C00026F0CFFB01214FF48040E4
:100AE80026F0E6FB2720012126F0D4FB0320012174
:100AF800C0F2070026F0DCFB012026F0D7FE26F026
:100B080019FC40F25070C2F2000026F039FB19F0CF
:100B1800F7FC03B000BD00BF30B4836990F84C20E7
:100B28006AB9416999420AD04469A34209D2416924
:100B3800426905698261CC1A90F84C1049B130BC01
:100B480070478261C56890F84C10EC1A0569002955
:100B5800F5D1826B4065EB18054D012180F84C10EA
:100B680005651046D360546030BC26F089B800BFD4
:100B7800210B000838B590F84C400CB1002038BD66
:100B8800856B0365049B012480F84C404365E9604C
:100B9800284621466A6026F073F8204638BD00BF13
:100BA8002DE9F047884684B05C21824601209146B1
:100BB800FFF710FD454B0446012502A800271C60DD
:100BC800022626F0A9FA102029468DF80D508DF836
:100BD8000C608DF80E708DF80F5026F069FBB84543
:100BE80014BF404680200146E0612846FFF7F2FC2A
:100BF8002062384607220A21C4F2020026F09CFA35
:100C080038464FF48062C4F2020002A9029226F02C
:100C1800DBF946F288404FF47463C2F20003C4F271
:100C280002004FF00068636449466063C4F83C8082
:100C3800C4F80C902846FFF7CDFC206138460921FE
:100C48000722C4F2020026F077FA38464FF4007201
:100C5800C4F2020002A9029226F0B6F946F2B8419F
:100C6800C4F202014FF03D504623A064A163C4F8CA
:100C7800408001A88DF804308DF805608DF8067065
:100C88008DF8075025F016FCBAF5407F03D02046B2
:100C980004B0BDE8F08738460C210722C4F20200F0
:100CA80026F04AFA38460B210722C4F2020026F041
:100CB80043FA38464FF4C052C4F2020002A9029225
:100CC8008DF80F6026F080F9E1E700BF600700208B
:100CD8002DE9F047884684B05C2182460120914680
:100CE800FFF778FC484B0446012502A81C60002742
:100CF80026F012FA02264FF4003029468DF80D50DE
:100D08008DF80C608DF80E708DF80F5026F0C2FA31
:100D1800B84514BF404680200146E0612846FFF7E9
:100D280059FC20624FF4406007220621C4F20200F9
:100D380026F002FA4FF440604022C4F2020002A9F1
:100D4800029226F041F946F288004FF47463C2F229
:100D58000003C4F202004FF0006863644946606310
:100D6800C4F83C80C4F80C902846FFF733FC206197
:100D78004FF4406005210722C4F2020026F0DCF996
:100D88004FF440602022C4F2020002A9029226F029
:100D98001BF946F2A0013846C4F20201C2F23D0036
:100DA8001123A064A163C4F8408001A88DF8043021
:100DB8008DF805608DF806708DF8075025F07AFBE0
:100DC800BAF5407F03D0204604B0BDE8F0874FF461
:100DD800406004210722C4F2020026F0ADF94FF466
:100DE800406003210722C4F2020026F0A5F94FF45F
:100DF80040601822C4F2020002A902928DF80F6026
:100E080026F0E2F8DFE700BF640700202DE9F04391
:100E1800012085B089465C219046FFF7DBFB344B07
:100E28000446012502A81C60002626F075F9022751
:100E380029464FF480208DF80D508DF80C708DF8F0
:100E48000E608DF80F5026F025FAB14514BF4846BC
:100E580080200146E0612846FFF7BCFB20624FF482
:100E6800406007220921C4F2020026F065F94FF418
:100E7800406002A94FF40072C4F20200029226F008
:100E8800A3F846F228004FF47463C1F200034FF050
:100E98000062C4F20200636441466063E263C4F81E
:100EA8000C802846FFF796FB20614FF4406007222C
:100EB8000821C4F2020026F03FF94FF440604FF4D5
:100EC800807302A9C4F20200029326F07DF801A8FB
:100ED80027218DF804108DF805708DF806608DF8BF
:100EE800075025F0E7FA204605B0BDE8F08300BFBB
:100EF800680700202DE9F043012085B088465C2171
:100F08009146FFF767FB384B0446012502A81C6091
:100F1800002626F001F90227202029468DF80D50D9
:100F28008DF80C708DF80E608DF80F5026F0C0F912
:100F3800B04514BF404680200146E0612846FFF7CF
:100F480049FB20624FF4006008220721C4F2020026
:100F580026F0F2F84FF40060802202A9C4F20200E1
:100F6800029226F031F846F228404FF47463C1F239
:100F780000034FF02068C4F20200636449466063CE
:100F8800C4F83C80C4F80C902846FFF723FB206186
:100F98004FF4006008220621C4F2020026F0CCF8C3
:100FA8004FF40060402202A9C4F20200029226F027
:100FB8000BF8304646F2A041C4F20201C2F23D00ED
:100FC800A064452301A8A163C4F840808DF80430CB
:100FD8008DF805708DF806608DF8075025F06AFACF
:100FE800204605B0BDE8F083740700202DE9F047DE
:100FF8004FF48054C4F20104A04296B006468846D5
:1010080017461D4600F0D6804FF48840C4F2000011
:10101800864200F0C1804FF49041C4F200018E4234
:1010280000F0C1804FF49842C4F20002964200F0EA
:10103800CF804FF4A043C4F2000300249E4200F086
:1010480008814FF4A052C4F20102964200F0B98020
:10105800002001461FF07AFF0025A5620121656284
:1010680084F85800A5613046A78026636561C4F8F6
:101078000080E580258127F05DF803A827F040F877
:101088002368A288B4F808E0E788206B039303A9D3
:101098000C23ADF81820ADF812E0ADF81630ADF815
:1010A8001050ADF8147026F0BBFF0121206B27F01B
:1010B80033F807A825F0D2FD606B0C95311D4FF46D
:1010C800806208910D920E950F9511951395002841
:1010D8005BD025F089FC226AE16BE369606B0791BC
:1010E800099207A94FF480720B9310920A951295F2
:1010F8001495159525F06EFD606B616C25F0DAFD91
:101108000121606B25F0BCFD30464021012227F00B
:101118001FF8606B25F0CAFDE062A06B00282DD097
:1011280025F062FC256CE36807950025AB4208BFF3
:1011380010234022A06B0A9207A94FF400020B93D8
:101148000423129314921095159525F043FDA06B76
:10115800294625F0A9FDA06B1021012225F0C6FD26
:1011680030468021012226F0F3FF5B48016819B15F
:10117800204616B0BDE8F0870460F9E7304640F233
:101188002771012226F0EEFFEFE7304640F22551A5
:10119800012226F0E7FFC0E7104619461E9AFFF71E
:1011A80097FD04464DE7104619461E9AFFF72EFE96
:1011B80004464DE7104619461E9AFFF7F1FC04460F
:1011C8003FE7384629461E9AFFF794FE04463FE754
:1011D8005C210120FFF7FEF9404A04464FF001095F
:1011E80001A81460002D08BF802525F095FF4FF059
:1011F800020A00234FF4002049468DF80A308DF882
:1012080009908DF808A08DF80B9026F043F8294630
:10121800E5614846FFF7DEF920620020C4F20200CB
:101228004946082225F088FF0020C4F2020001A9DF
:10123800CDF804A046F2400525F0C6FE0020C4F211
:101248000205C1F23D004FF000616563E16360642F
:10125800FEE65C210120FFF7BDF9214904464FF065
:10126800010901A8002D08BF80254FF0020A0C6073
:1012780025F052FF00224FF4801049468DF80A20CD
:101288008DF809908DF808A08DF80B9026F002F8DB
:101298002946E5614846FFF79DF920624FF4406012
:1012A800C4F202005146082225F046FF4FF4406080
:1012B800C4F2020001A90425019525F085FE46F235
:1012C80010003D23C4F20200C1F280034FF0006118
:1012D8006063E1636364BBE6780700206C07002065
:1012E800700700204269036930B499544169C368A2
:1012F800846B4A1CB2FBF3F103FB112242619CB1DF
:10130800826990F84C1069B94569AA420AD04569C2
:10131800AA423CBF436941690569816190F84C1054
:101328009B1A41B130BC7047006B40F22771012213
:1013380030BC26F017BFAA18054D4065012180F87A
:101348004C1005652046E260636030BC25F098BC0F
:10135800210B0008436B2BB15968C36AC81A18BF20
:1013680001207047826A406A101A18BF012070472E
:10137800426B10B403465AB1C06AD9691A6A081A8E
:10138800105CDA6A013ADA6202B9D96210BC7047B5
:10139800806A196ADA69085C9C6A611CB1FBF2F41C
:1013A80002FB14129A62F1E770B5044684B001603A
:1013B8000121006B26F0BEFE684626F0A1FE2368D8
:1013C800A2882689E588206B009369460023ADF83A
:1013D8000C200C22ADF80430ADF80660ADF80850CA
:1013E800ADF80A2026F01CFE206B012126F094FEA1
:1013F80004B070BD70B5044684B0C1800121006B93
:1014080026F098FE684626F07BFE2368A288268987
:10141800E588206B009369460023ADF80C200C2268
:10142800ADF80430ADF80660ADF80850ADF80A2004
:1014380026F0F6FD206B012126F06EFE04B070BD8B
:1014480070B5044684B001810121006B26F072FE5C
:10145800684626F055FE2368A2882689E588206B11
:10146800009369460023ADF80C200C22ADF8043037
:10147800ADF80660ADF80850ADF80A2026F0D0FDAA
:10148800206B012126F048FE04B070BD40F2607365
:10149800C2F2000310B51C68A06BA16C25F00AFC11
:1014A800002084F84C00216D606D884710BD00BF96
:1014B8001A4B1B68196B0A8892B202F0200080B29E
:1014C80010B460B1586A8C88196AE4B20C54586A2E
:1014D800D9690130B0FBF1F401FB1401596202F043
:1014E800800290B280B199695A6991420ED0986988
:1014F8001A69196B105CDA68888099690131B1FB47
:10150800F2F002FB10129A6110BC7047186B40F29F
:101518002771002210BC26F025BE00BF60070020FE
:1015280040F26473C2F2000310B51C68A06BA16C92
:1015380025F0C0FB002084F84C00216D606D8847C1
:1015480010BD00BF1A4B1B68196B0A8892B202F0D3
:10155800200080B210B460B1586A8C88196AE4B26D
:101568000C54586AD9690130B0FBF1F401FB14013D
:10157800596202F0800290B280B199695A69914229
:101588000ED098691A69196B105CDA6888809969B5
:101598000131B1FBF2F002FB10129A6110BC7047E6
:1015A800186B40F22771002210BC26F0DBBD00BF8B
:1015B800640700201A4B1B68196B0A8892B202F064
:1015C800200080B210B460B1586A8C88196AE4B2FD
:1015D8000C54586AD9690130B0FBF1F401FB1401CD
:1015E800596202F0800290B280B199695A699142B9
:1015F8000ED098691A69196B105CDA688880996945
:101608000131B1FBF2F002FB10129A6110BC704775
:10161800186B40F22771002210BC26F0A3BD00BF52
:10162800680700201A4B1B68196B0A8892B202F0EF
:10163800200080B210B460B1586A8C88196AE4B28C
:101648000C54586AD9690130B0FBF1F401FB14015C
:10165800596202F0800290B280B199695A69914248
:101668000ED098691A69196B105CDA6888809969D4
:101678000131B1FBF2F002FB10129A6110BC704705
:10168800186B40F22771002210BC26F06BBD00BF1A
:101698006C0700201A4B1B68196B0A8892B202F07B
:1016A800200080B210B460B1586A8C88196AE4B21C
:1016B8000C54586AD9690130B0FBF1F401FB1401EC
:1016C800596202F0800290B280B199695A699142D8
:1016D8000ED098691A69196B105CDA688880996964
:1016E8000131B1FBF2F002FB10129A6110BC704795
:1016F800186B40F22771002210BC26F033BD00BFE2
:101708007007002040F27473C2F2000310B51C6821
:10171800A06BA16C25F0CEFA002084F84C00216D56
:10172800606D884710BD00BF1A4B1B68196B0A888B
:1017380092B202F0200080B210B460B1586A8C886E
:10174800196AE4B20C54586AD9690130B0FBF1F453
:1017580001FB1401596202F0800290B280B19969CC
:101768005A6991420ED098691A69196B105CDA6847
:10177800888099690131B1FBF2F002FB10129A617D
:1017880010BC7047186B40F22771002210BC26F07D
:10179800E9BC00BF740700202DE9F00F4AF290035E
:1017A800C1F200032DED108BF0EE08EA9FEDFEFA72
:1017B8009FEDFEEAC3ED06EAC3ED0FEADFEDFCEAB2
:1017C80083ED00FABFEE00FA83ED01FAC3ED10EAEB
:1017D80083ED17EA83ED18EAB1EE08FADFEDF5EAD2
:1017E8009FEDF5EA83ED09FAB1EE0CFA83ED0AFAFA
:1017F800C3ED11EA83ED1AEAB2EE00FADFEDEFEA83
:101808009FEDEFEA83ED0BFAB2EE02FADFEDED7A27
:101818009FEDED7A9FEDED1A83ED0CFAC3ED13EA17
:1018280083ED1BEAB2EE04FADFEDE9EA9FEDE9EA9F
:10183800B3EE046AF7EE006AB5EE002AF0EE002A6D
:10184800B1EE04CAB1EE000A83ED0DFAB2EE06FA63
:10185800C3ED027AC3ED037AC3ED046AC3ED052A2A
:1018680083ED070A83ED08CA83ED0EFAC3ED127AF9
:1018780083ED147A83ED157AC3ED16EA83ED196AC0
:10188800C3ED1C7AC3ED1D7A83ED1EEA83ED1F2A92
:1018980083ED201A83ED211A83ED221A9FEDCE1ACB
:1018A80083ED241A9FEDCD1ADFEDCD1A83ED251AAD
:1018B8009FEDCC1AC3ED281A83ED261AC3ED291A19
:1018C800C3ED2A1A9FEDC81ADFEDC81A83ED2C1A4A
:1018D800C3ED2B1A9FEDC61ADFEDC61A83ED272A32
:1018E800C3ED2D1A83ED2E1A83ED2F2ADFEDC21AD0
:1018F8009FEDC22A9FEDC21A9FEDC2DADFEDC2DA70
:10190800DFEDC28A83ED312AC3ED351A83ED391A2A
:101918009FEDBF2ADFEDBF1A9FEDBF1ADFEDBF5A5B
:10192800F7EE04CA83ED23DAC3ED30DAC3ED32DA19
:1019380083ED33DA83ED347AC3ED367AC3ED377A43
:10194800C3ED38CAC3ED3A7AC3ED3BCAC3ED3C7A5E
:10195800C3ED3D7AC3ED3E7A83ED3F2AC3ED408A5D
:101968009FEDAF2AC3ED411A83ED451A9FEDAD1ADD
:10197800C3ED427AC3ED437AC3ED447AC3ED467AA8
:10198800C3ED477AC3ED487AC3ED497AC3ED4A7A85
:10199800C3ED4B7AC3ED4C7AC3ED4D7AC3ED4E7A65
:1019A800C3ED4F7AC3ED507AC3ED517AC3ED527A45
:1019B800C3ED537AC3ED547AC3ED557AC3ED567A25
:1019C800C3ED577AC3ED587AC3ED597AC3ED5A7A05
:1019D800C3ED5B7AC3ED5C7AC3ED5D7AC3ED5E7AE5
:1019E800C3ED5F7AC3ED607AC3ED617AC3ED627AC5
:1019F800DFED8D1AC3ED637AC3ED647AC3ED657AC2
:101A0800C3ED667AC3ED677AC3ED687AC3ED697A88
:101A1800C3ED6A7AC3ED6B7AC3ED6C7AC3ED6D7A68
:101A2800C3ED6E7AC3ED6F7AC3ED707AC3ED717A48
:101A3800C3ED727AC3ED737AC3ED747AC3ED757A28
:101A4800C3ED767AC3ED777AC3ED787AC3ED797A08
:101A5800C3ED7A7AC3ED7B7AC3ED7C7AC3ED7D7AE8
:101A6800C3ED7E7AC3ED7F7AC3ED807AC3ED817AC8
:101A7800C3ED827AC3ED837AC3ED847AC3ED857AA8
:101A8800C3ED865AC3ED8A5AC3ED8B5AC3ED8C5AFF
:101A9800C3ED8D2AC3ED912AF7EE085AF2EE052A16
:101AA8009FED623ADFED623A9FED624ADFED624AEE
:101AB8009FED625ADFED62BA9FED629A9FED62BABE
:101AC80083ED872A83ED891AC3ED965AC3ED9A2AC6
:101AD8009FED5E2A9FED5E1ADFED5E5ADFED5E2A0E
:101AE800F0EE04AAC3ED881A83ED946A83ED9C6A2C
:101AF80083ED9D6AF6EE001AB3EE0E6A03F2AC515E
:101B080003F5836603F2144703F5826C03F20C486D
:101B180003F5816903F2044A03F5806B03F2A455C7
:101B280003F5B56403F5B662C3ED8E7AC3ED8F7A1B
:101B3800C3ED907AC3ED927AC3ED937A83ED95CA9B
:101B4800C3ED977AC3ED987AC3ED996A83ED9B2A22
:101B580083ED9E6AC3ED9F1AC3EDA07AC3EDA1BAC7
:101B6800C3EDA27AC3EDA3BA83EDA49A83EDA51AB7
:101B7800C3EDA65A83EDA7BA83EDA8BAC3EDA92A87
:101B8800C3EDAA7AC3EDABAAC3EDAC7AC3EDADAA97
:101B9800C3EDAE7AC3EDAF7A83EDB03A83EDB13AD7
:101BA80083EDB23A60E000BF00000043000020422D
:101BB800004088440000BD4400C0B4443333333F80
:101BC8000000344300000000CDCC4C3D003C1C46D6
:101BD800000070420028074700A0B4449A99393F92
:101BE8000000C14300007043000091430080594445
:101BF8000040034652491D3BACC5A7370000B4431B
:101C08000AD7233D000096440040354400007A443A
:101C180000C0734400A08C4400C0F3440000E147B6
:101C2800000061480000E148001B374A3333D3BF46
:101C3800E3A59B3C5C8F423E713DAABFFA7EEA3D1C
:101C480000C079440000484300002F448FC2F53B90
:101C58006666364000001643CDCC4C3E00A00C45CD
:101C680000803B44A913503CC3EDB37AC3EDB47A6A
:101C7800C3EDB57AC3EDB67AC3EDB77AC3EDB87ADA
:101C8800C3EDB97AC3EDBA7AC3EDBB7AC3EDBC3AFA
:101C9800C3EDBD3AC3EDBE3AC3EDBF7AC3EDC07A1A
:101CA800C3EDC17AC3EDC27AC3EDC37AC3EDC47A7A
:101CB800C3EDC57AC3EDC67AC3EDC77AC3EDC87A5A
:101CC800C3EDC97AC3EDCA7AC3EDCB7AC3EDCC7A3A
:101CD800C3EDCD7AC3EDCE7AC3EDCF7AC3EDD07A1A
:101CE800C3EDD17AC3EDD27AC3EDD37AC3EDD47AFA
:101CF800C3EDD57AC3EDD67AC3EDD77AC3EDD87ADA
:101D0800C3EDD97A83EDDA4A83EDDB4A83EDDC4A09
:101D1800C3EDDD7AC3EDDE7AC3EDDF7AC3EDE07A99
:101D2800C3EDE17AC3EDE27AC3EDE37AC3EDE47A79
:101D3800C3EDE57AC3EDE67AC3EDE77AC3EDE87A59
:101D4800C3EDE97AC3EDEA7AC3EDEB7AC3EDEC4A69
:101D5800C3EDED4AC3EDEE4AC3EDEF7AC3EDF07A79
:101D6800C3EDF17AC3EDF27AC3EDF37AC3EDF47AF9
:101D7800C3EDF57AC3EDF67AC3EDF77A83EDF85A39
:101D880083EDF95A83EDFA5AC3EDFB7AC3EDFC7A79
:101D9800C3EDFD7AC3EDFE7AC3EDFF7A00231FED94
:101DA80051AA5FED519ACCF28223CAF80030A1F50E
:101DB800C87386ED00AA86ED02AAC3ED009A103614
:101DC800C3ED029A4FF46043C4F2C44373604FF406
:101DD8008043C4F2B443B36040F64133C3F634439E
:101DE80086ED009ACBED007AC9ED007AC8ED007A4D
:101DF800CCED007AC7ED007AF36040F6A163C3F634
:101E08006A4333614DF20A73C3F6A3337361A1F5D4
:101E1800B673C3ED007AC3ED027A4FF48043C4F27F
:101E28000353B362A1F5AC73C3ED008AC3ED027A24
:101E3800C3ED047A0023C4F26003336443F23333FE
:101E4800C4F25303736445F6C043C4F21313B36476
:101E580041F25D63C4F26D13F36449F63643CCF284
:101E68006B23C6ED097AC6ED0C7AC6ED0E7AC6ED7F
:101E7800077A3365543643F26673C4F2E923336054
:101E88004DF2AE63CCF2D623736042F6CD131FED4C
:101E98008B8AC4F21723B360A1F59273C3ED007A5D
:101EA800C3ED027A83ED048A40F2DE53C3F6CA43D7
:101EB800FAEE040A7362A1F58473C3ED000A0023E5
:101EC800CCF2C813F3624EF68533C4F26913C6ED3B
:101ED800047AC6ED067A86ED088A3363C6ED0D6A84
:101EE800C6ED0E6A86ED0F0A4CF6CD4386ED107AE4
:101EF800C6ED110A4836C4F294133360331D6033BB
:101F0800C6ED027AC6ED047AC6ED067AC6ED017A08
:101F1800C6ED037AC6ED057AC6ED077AC6ED087AEE
:101F2800C6ED097AC6ED0A7AC6ED0B7AC6ED0C7ACB
:101F3800C6ED0D7AC6ED0E7AC6ED0F7AC6ED107AAB
:101F4800C6ED117AC6ED127AC6ED137AC6ED147A8B
:101F5800C6ED157AC6ED167AC6ED177A4DF2EC2065
:101F68006036C6ED007AC6ED027AC6ED047AC6ED93
:101F7800067AC3ED007AC3ED027AC3ED047AC3EDA5
:101F8800067AC0F60200C6ED087AC6ED0A7AC6EDF2
:101F98000C7AC6ED0E7AC6ED107AC6ED127AC6ED49
:101FA800147AC6ED167AC6ED187AC6ED1A7AC6ED19
:101FB8001C7AC6ED1E7A7836C3ED087AC3ED0A7A24
:101FC800C3ED0C7AC3ED0E7AC3ED107AC3ED127A25
:101FD800C3ED147AC3ED167AC3ED187AC3ED1A7AF5
:101FE800C3ED1C7AC3ED1E7AC5ED007AC4ED007A04
:101FF800C1ED007AC2ED007ABDEC108BBDE8F00FA0
:1020080004F01CBE2DE9F04700F012FD194FDFF86F
:10201800688000F5E45A06460AF1040A40F2B45909
:1020280030463968102228F08FFE10B93269124BF9
:102038001A60042439591022304628F085FE251DDF
:102048001022444408B9306920603046795928F094
:102058007BFE18B9316908EB050211602C1D4C454F
:10206800E8D114365645DBD10448BDE8F04704F002
:10207800E5BD00BF0400002090A0001010D30208A6
:102088002DE9F84340F26D101421FEF7A3FA074634
:1020980000287DD0002304464FF00166B3B153F801
:1020A8001C2C511CA3F11C0519D0C5B1206818B906
:1020B80004E054F81C0F08B19042FAD12046294692
:1020C8001C2229F04BF82B46002BE8D156F81C2C83
:1020D800531C04D04FF6E475C0F60F05E6E700F090
:1020E800A7FC40F2217100F09BFBC4B2002024F051
:1020F8007DFE24F089FE012024F078FE002C3BD0E0
:102108003B6873B13C464FF0016050F81C1D4B1CF6
:10211800FBD12146072200F017FB54F81C0F0028BA
:10212800F1D1DFF884901D4EA9F5B6651022384626
:10213800296829F013F8326807F114043A616968CC
:102148001022204629F00AF8736804F11408236164
:10215800A9681022404629F001F8B1680835616283
:10216800083628344D45EAD100F062FC394640F281
:10217800217200F0E9FAC4B2384640F26D11142217
:10218800FEF748FA064804F059FD2046BDE8F883F2
:10219800044804F053FD3C46F7E700BF90A0001048
:1021A80040D302086CD30208B405002010B50368B8
:1021B8004268D118B1F5B77F044603D3C3F5B672A8
:1021C80001324260054904F1080001EB83019200E5
:1021D80028F0C4FF6068800010BD00BF90A0001008
:1021E80070B504460E4D0068626804F10806920056
:1021F800314605EB800028F0B1FF23686268D118EA
:10220800B1F5B77F03D3C3F5B670421C626005EB26
:1022180083013046920028F0A1FF6368980070BDE2
:1022280090A000102DE9F04F814683B08A46112016
:1022380001211446FEF7CEF90546002866D0BAF10A
:10224800000F48DD334E344FCA4407E040F27C7239
:10225800C2F2000213550134D1453CD019F8013BB4
:102268000A2B01D07F2CF1D140F27C70C2F2000021
:102278000023035529492A4601AB28F051FD0228BD
:1022880032D128463168112240F2B45828F05CFD5A
:1022980010B90198204908604FF0040B112256F834
:1022A8000B10284628F050FD0BF10404112207EB0F
:1022B8000B0308B9019818602846315928F044FDE5
:1022C80010B93919019A0A6004F1040BC345E5D124
:1022D8000024D145C2D1284611210122FEF79AF9DE
:1022E800204603B0BDE8F08F0D480E492A4601ABE1
:1022F80028F016FD0228C4D009480B492A4601AB2C
:1023080028F00EFD0228BCD00024E2E74FF0FF348D
:10231800E6E700BF0400002090A00010ACD302083C
:102328007C070020CCD30208C4D30208274B70B521
:10233800002808BF184617F0D9FF061E37DB4FF4F0
:1023480000700121FEF746F900250446002833D025
:1023580021464FF0FF324FF40073304618F01CF856
:102368002A46051E2946204612DDFFF75BFF051E9B
:10237800EEDA304618F064F820464FF40071012276
:10238800FEF748F9FF25124804F058FC68B270BD02
:10239800304618F055F820464FF400710122FEF738
:1023A80039F98DB90B4804F049FC68B270BD0A4888
:1023B80004F044FCFF25E9E7084804F03FFC3046F8
:1023C80018F03EF8FF25E1E7EDB2DCE7D4D30208C8
:1023D80078D4020844D40208E0D3020808D40208DA
:1023E8002DE9F0472DED028B00F022FB564FDFF868
:1023F8005C8100F5E45A06460AF1040A40F2B45931
:1024080030463968102228F09FFC10B932694F4BCA
:102418001A60042439591022304628F095FC251DED
:102428001022444408B9306920603046795928F0B0
:102438008BFC18B9316908EB050211602C1D4C455D
:10244800E8D114365645DBD1414804F0F7FB0020AB
:10245800FFF76CFF002870DB14F0C2F900F0E8FA0F
:1024680090ED048AB0EE480A26F08CFEB0B9DFED94
:10247800397AB4EEE78AF1EE10FA11D498ED000A31
:10248800B4EEC08AF1EE10FA23DAB4EEC80AF1EE1F
:1024980010FA18DCBDEC028BBDE8F0879FED2E8AA0
:1024A80098ED000A9FED2B7AB4EEC70AF1EE10FA08
:1024B800E6D5FFF771F9254B93ED000AB4EEC80A8B
:1024C800F1EE10FAE6DDBDEC028BBDE8F047FFF750
:1024D800D7BD00F0ADFA00F5E455064605F1040A4B
:1024E80040F2B45930463968102228F02DFC10B952
:1024F8003469164B1C60042439591022304628F0E0
:1025080023FC251D102208EB040108B93069086076
:102518003046795928F018FC18B9326908EB0504D7
:1025280022602C1D4C45E7D114365645DAD10848AF
:1025380004F084FB98ED000AA7E700214A46034807
:1025480028F030FE8AE700BF0400002090A00010A9
:1025580010D3020800000043000000005F4B2DE983
:10256800F047002808BF184617F0C0FEB0F1000871
:10257800C0F2958080200121FEF72CF8044600283F
:1025880000F0938010200121FEF724F8DFF868910D
:102598000646A8B1A9F5B665514F95ED000A0A217E
:1025A800FEF7D8F933464F493A68204628F0A2FB8F
:1025B800C3B21021304601225EB2FEF72BF87EB975
:1025C800404617F03DFF204680210122FEF722F801
:1025D8004FF0FF36444804F031FB3046BDE8F08741
:1025E800404621464FF0FF32334617F0FFFE40B217
:1025F800864236DDE4E74FF0FF3221463346404657
:1026080017F0F4FE42B2012110209642D8DCFDF703
:10261800E1FF0A2106460028D2D095ED010AFEF70F
:1026280099F97A682F493346204628F063FB5FFA08
:1026380080FA1021304601224FFA8AFAFDF7EAFFA4
:1026480004350437BAF1000FBAD0404621464FF09E
:10265800FF32534617F0CAFE46B2B245B0DC4D45CC
:102668002CD001211020FDF7B5FF0A2106460028CD
:10267800A6D095ED010AFEF76DF97A681949334637
:10268800204628F037FBC3B21021304601225EB243
:102698000435FDF7BFFF0437002E91D0ABE7134890
:1026A80004F0CCFA4FF0FF3697E7114804F0C6FA69
:1026B800404617F0C5FE4FF0FF368EE7404617F04C
:1026C800BFFE802101222046FDF7A4FF002E81DBFA
:1026D800084804F0B3FA3046BDE8F087D4D30208BE
:1026E80004000020ACD402084CD50208B8D4020873
:1026F800E0D4020818D5020840A600102DE9F041E0
:10270800104D102229680746002440F26D1828F061
:1027180083FBA0B1012408E038467168013428F031
:102728007BFB60B10134444509D069681022384602
:1027380028F072FB2E1D102208350028ECD1204607
:10274800BDE8F081040000202DE9F843044617464F
:102758000D4624F063FBF32024F07CFB002F5DD0B2
:102768007B1E2046296803F0010924F0D1FB0928C3
:102778002E460FD02046296824F0CAFB092809D024
:102788002046316824F0C4FB002424F059FB20467D
:10279800BDE8F8834FF001080434B8453ED0B9F1DC
:1027A800000F11D02E1D2046316824F0B1FB0928F6
:1027B80005D02046316824F0ABFB0928E0D108F1A8
:1027C80001080434B84529D055F82810204624F0CB
:1027D8009FFB092805EB8806204605D055F82810E8
:1027E80024F096FB0928CBD108F1010804342046CF
:1027F80055F8281024F08CFB0928A14605EB88061B
:10280800204605D055F8281024F082FB0928B7D1B6
:1028180008F10108B84509F10404D5D10124B4E749
:10282800F8B504460E46A0B324F0F8FAF32024F0D5
:1028380011FB04F1784243F6FF739A4200F282805A
:10284800002504EB860606F1784443F6FF708442BF
:1028580047D9A4F5804383426ED80826B5423ED8AE
:102868000221284624F074FB771B09282C46C7F35D
:10287800C0071FD00221284624F06AFB092819D076
:102888002046022124F064FB002424F0D9FA2046D3
:10289800F8BD24F0C3FAF32024F0DCFA0024C0F6D3
:1028A8000E0404F1774505F57F03B3F5803F6BD23D
:1028B8002025C6E7582D12D005F10804B4420ED8D9
:1028C80047B30221204624F043FB092805D0022102
:1028D800204624F03DFB0928D2D1582C27D10124C9
:1028E800D3E70026BAE70221582C04F10804204651
:1028F8002546F4D024F02CFB02210928204603D0D9
:1029080024F026FB0928BBD1582D05F10804E6D090
:10291800B442E4D80221204624F01AFB02210928F7
:102928002046E0D024F014FB0928A9D1DBE70834BD
:10293800B442EFD90124A8E7A4F50041814214D894
:1029480010268BE7A2F58041082599427FF679AFDA
:10295800A2F50040102598427FF673AFA2F54042D9
:1029680018259A427FF66DAF9BE7A4F54042824254
:1029780001D8182672E706F1774606F57F04B4F504
:10298800803F0BD2202669E74FF6FF7005F57E01E0
:10299800C0F2010081420BD8282552E74FF6FF709C
:1029A80006F57E03C0F20100834207D8282655E7C2
:1029B80005F57C02824207D8302542E706F57C01FE
:1029C800814207D8302649E705F57A03834207D8BC
:1029D800382536E706F57A02824207D838263DE7D9
:1029E80005F57801814207D840252AE706F57804DD
:1029F800844207D8402631E705F57602824207D897
:102A080048251EE706F57603834208D8482625E7B9
:102A180005F5740585428CBF5825502511E706F544
:102A28007406B6F5003F2CBF5826502616E700BF9F
:102A38000020C0F60E00704747F61023C1F6FF735A
:102A480053F82000704700BF4AF2446330B4C1F223
:102A5800000300F113014FF44064156803EBC10152
:102A6800C4F2000403EB8003606A4D6052688A6018
:102A7800C3F8200130BC7047C1B20F292DE9F843D3
:102A88008ABFA1F110070F46FFB28146481CC6B2A3
:102A98002D4D012031464FEA87081CF0F7F905EB68
:102AA80008046060B0B964201FF03EFA0120314686
:102AB8001CF0ECF9606068B964201FF035FA012059
:102AC80031461CF0E3F9606020B964201FF02CFA4D
:102AD800606858B3002119F04BFFDFED1C7A80EED7
:102AE800270AA84405EB4704D8F804104FF0005013
:102AF8000022012305EB8705FCEEC00A10EE906A60
:102B0800A4F8DC6109791CF043F8D8F804304FF0D8
:102B18000050642219791CF009F94FF44062C4F29C
:102B28000002506AC5F86401BDE8F88304F074F83F
:102B38004021074A09F10103044628F0C5F8204658
:102B4800BDE8F84304F07AB844A600100AD7233C3D
:102B5800D8EB02082DE9F04F7A4EDFF8F4C1DFF820
:102B6800F4B12DED028BA6F144084FF4406A83B00E
:102B78009FED758ADFED758A47464546002440F685
:102B8800FF79C4F2000A36E0D6F86021002A40D066
:102B98009CF8C01101F00400C1B200296FD0DBED30
:102BA800400A01EE903A9BED451AF8EE615A31EE73
:102BB800602A9BED416A65EE822ABDEEC63AC2EEF6
:102BC800A83A106813EE101A30EEA34AFDEEC44A74
:102BD80014EE903A8B4206DBBDEEC15A15EE101A80
:102BE8008B42B8BF19460160013404360235102CF7
:102BF80008F104084CD03B1993F8B0020028F3D030
:102C0800B5F8FC314B4528BF4B460D2CA5F8FC31D7
:102C1800BADD56F8403C002BE6D0DAF82410D6F896
:102C2800E0000A1A07EE102AF8EE477AF4EEC87A9E
:102C3800F1EE10FA41DDDAF82410D6F820010A1A6C
:102C480006EE902AB8EE660AB4EEC80AF1EE10FA5B
:102C580057DC3F4B0193019890F8C03103F0040210
:102C6800D1B2002937D0B5F8FC11D8F84420B1F515
:102C7800CC7F35DD494537D80B0198B232E0126870
:102C8800013404360235102C116008F10408B2D161
:102C980097F8D12262B100235C1C07EBC301E0B2B4
:102CA80084311CF093F897F8D10284422346F3DB71
:102CB80003B0BDEC028BBDE8F08F07EBC40191F8BF
:102CC800A4004207C5D19CF8C021214902F00400A4
:102CD800C2B201915AB9D8F844000023038083E7AF
:102CE80041F6901010807FE74FF6F070FAE71979F7
:102CF800CDF800C04FF000501BF0CCFDDDF800C04F
:102D0800A9E704F1140107EBC100002242608260C8
:102D180019790F4BCDF800C04FF0005001930123F3
:102D28001BF036FF56F8402C4FF000501179642202
:102D38001BF0FCFFDAF82410DDF800C0C6F82011FB
:102D480089E700BF88A600100024744900F07F4579
:102D580010C6001090A000102DE9F84F894EDFF83A
:102D68002CA2DFF82CB2A6F1440400254FF44069E8
:102D78002DED028B27469FED848AA846C4F20009F0
:102D880033E0D6F86021002A38D09AF8C0311268AA
:102D980003F00400C1B229B19BED3F1AFCEEC11A41
:102DA80011EE901A116001356319043693F8B022B8
:102DB8000237AAB10D2DA7F8FC8144DCD6F86001D2
:102DC800002840D09AF8C011026801F00403D8B274
:102DD80028B19BED3F4AFCEEC44A14EE900A1060FD
:102DE800013504360237102D55D0631993F8B00217
:102DF8000028D8D00D2DA7F8FC81C2DD56F8403C3C
:102E0800002BD0D0D9F82410D6F8E0000A1A07EE23
:102E1800102AF8EE477AF4EEC87AF1EE10FA53DD8C
:102E2800D9F82410D6F82021881A00EE100AF8EEF6
:102E3800400AF4EEC80AF1EE10FA00F38780316810
:102E4800A1F80080AFE756F8403C002BC8D0D9F86D
:102E58002410D6F8E020881A02EE100AF8EE422A6A
:102E6800F4EEC82AF1EE10FA41DDD9F82400D6F8BC
:102E78002011421A03EE102AF8EE433AF4EEC83A4B
:102E8800F1EE10FA46DC3068013504360237102DB1
:102E9800A0F80080A9D194F8D12200215AB14D1C84
:102EA80004EBC1018431E8B21BF090FF94F8D132F1
:102EB8009D422946F3DB0020C4F8A802C4F8AC02FE
:102EC800BDEC028BBDE8F88F04EBC50191F8A400B6
:102ED8004007B4D19AF8C02102F00401C8B2002812
:102EE800ADD04FF0005019791BF0D4FCA7E704EBE4
:102EF800C50191F8A4205107C5D19AF8C00100F086
:102F08000401CAB2002ABED04FF0005019791BF054
:102F1800C1FCB8E705F1140004EBC0010022C1F8B8
:102F28000480C1F8088019794FF0005001231BF084
:102F38002FFE56F8403C64224FF0005019791BF0E0
:102F4800F5FED9F82420C6F820219CE705F11401E4
:102F580004EBC1024FF00050C2F80480C2F80880A8
:102F68001979002201231BF013FE56F8403C4FF05C
:102F78000050197964221BF0D9FED9F82400C6F84C
:102F880020015CE788A600100024744910C60010D0
:102F980090A0001010B5E14CD4EDAB7A30EE670A82
:102FA8002DED048BB5EEC00AF1EE10FAB0EE609A82
:102FB800F0EE418AB0EE618A00F10584DFEDDA9A1D
:102FC800B4EE690AF1EE10FAD8BFF0EE409AD44A8E
:102FD80094F8B01292F90432206806EE103A9FED88
:102FE800D17AF8EEC60AD2ED7E6A20EE871AF7EE9D
:102FF800002A71EE661A81EE812A32EE223AB9B3BE
:1030080090ED005ADFEDCA3A29EE854ADFEDC94A4C
:10301800D0ED015A44EE234A29EE250A90ED026AC2
:1030280040EE234A68EE860AD0ED036A40EEA34AD2
:1030380028EE267ADFEDBC1A47EE234A24EE831ADF
:10304800B4EEE11AF1EE10FA03DB9FEDB82A77EE41
:10305800827AFDEEC12A12EE902A002AC0F2BA83C3
:1030680040F6FF718A42A8BF0A4693B2A4F8FC3121
:1030780094F8B122BAB390ED045ADFEDAD3A29EED7
:10308800854ADFEDAC4AD0ED055A44EE234A29EED5
:10309800250A90ED066A40EE234A68EE860AD0EDCE
:1030A800076A40EEA34A28EE267ADFED9F1A47EE1C
:1030B800234A24EE831AB4EEE11AF1EE10FA03DB88
:1030C8009FED9A2A77EE827AFDEEC12A12EE903AA7
:1030D800002BC0F27D8340F6FF718B42A8BF0B46E0
:1030E8009AB2A4F8FE2194F8B232BBB390ED085A14
:1030F800DFED8F3A29EE854ADFED8E4AD0ED095A89
:1031080044EE234A29EE250A90ED0A6A40EE234A46
:1031180068EE860AD0ED0B6A40EEA34A28EE267ABE
:10312800DFED811A47EE234A24EE831AB4EEE11A42
:10313800F1EE10FA03DB9FED7D2A77EE827AFDEE41
:10314800C12A12EE902A002AC0F24C8340F6FF7181
:103158008A42A8BF0A4693B2A4F8003294F8B32270
:10316800BAB390ED0C5ADFED723A29EE854ADFEDDD
:10317800714AD0ED0D5A44EE234A29EE250A90ED06
:103188000E6A40EE234A68EE860AD0ED0F6A40EEDA
:10319800A34A28EE267ADFED641A47EE234A24EE86
:1031A800831AB4EEE11AF1EE10FA03DB9FED5F2A01
:1031B80077EE827AFDEEC12A12EE903A002BC0F229
:1031C8001B8340F6FF718B42A8BF0B469AB2A4F846
:1031D800022294F8B432BBB390ED105ADFED543AA2
:1031E80029EE854ADFED534AD0ED115A44EE234AC1
:1031F80029EE250A90ED126A40EE234A68EE860A07
:10320800D0ED136A40EEA34A28EE267ADFED461A7F
:1032180047EE234A24EE831AB4EEE11AF1EE10FACF
:1032280003DB9FED422A77EE827AFDEEC12A12EE89
:10323800902A002AC0F2E28240F6FF718A42A8BFB3
:103248000A4693B2A4F8043294F8B522BAB390EDC2
:10325800145ADFED373A29EE854ADFED364AD0EDCC
:10326800155A44EE234A29EE250A90ED166A40EED7
:10327800234A68EE860AD0ED176A40EEA34A28EE84
:10328800267ADFED291A47EE234A24EE831AB4EE94
:10329800E11AF1EE10FA03DB9FED242A77EE827A29
:1032A800FDEEC12A12EE903A002BC0F2978240F64A
:1032B800FF718B42A8BF0B469AB2A4F8062294F875
:1032C800B632002B47D090ED185ADFED193A29EEA7
:1032D800854ADFED184AD0ED195A44EE234A29EE03
:1032E800250A90ED1A6A40EE234A68EE860AD0ED68
:1032F8001B6A40EEA34A28EE267ADFED0B1A47EE4A
:10330800234A24EE831AB4EEE11AF1EE10FA13DB25
:103318009FED062A77EE827A0EE000BF44A60010E1
:10332800FC070020CDCC6C4000F07F459A99193EEF
:103338000AD7233C00000000FDEEC12A12EE902AB5
:10334800002AC0F2498240F6FF718A42A8BF0A46A5
:1033580093B2A4F8083294F8B722BAB390ED1C5A85
:103368005FED0D3A29EE854A5FED0E4AD0ED1D5A04
:1033780044EE234A29EE250A90ED1E6A40EE234AC0
:1033880068EE860AD0ED1F6A40EEA34A28EE267A38
:103398005FED1B1A47EE234A24EE831AB4EEE11AB6
:1033A800F1EE10FA03DB1FED1F2A77EE827AFDEEAD
:1033B800C12A12EE903A002BC0F21A8240F6FF7131
:1033C8008B42A8BF0B469AB2A4F80A2294F8B832E6
:1033D800BBB390ED205A5FED2A3A29EE854A5FED9E
:1033E8002B4AD0ED215A44EE234A29EE250A90EDC6
:1033F800226A40EE234A68EE860AD0ED236A40EE40
:10340800A34A28EE267A5FED381A47EE234A24EEBF
:10341800831AB4EEE11AF1EE10FA03DB1FED3D2A30
:1034280077EE827AFDEEC12A12EE902A002AC0F2C7
:10343800E18140F6FF718A42A8BF0A4693B2A4F818
:103448000C3294F8B922BAB390ED245A5FED483A99
:1034580029EE854A5FED494AD0ED255A44EE234AC4
:1034680029EE250A90ED266A40EE234A68EE860A80
:10347800D0ED276A40EEA34A28EE267A5FED561A69
:1034880047EE234A24EE831AB4EEE11AF1EE10FA5D
:1034980003DB1FED5A2A77EE827AFDEEC12A12EE7F
:1034A800903A002BC0F2928140F6FF718B42A8BF80
:1034B8000B469AB2A4F80E2294F8BA32BBB390ED38
:1034C800285A5FED653A29EE854A5FED664AD0EDE8
:1034D800295A44EE234A29EE250A90ED2A6A40EE3D
:1034E800234A68EE860AD0ED2B6A40EEA34A28EEFE
:1034F800267A5FED731A47EE234A24EE831AB4EE58
:10350800E11AF1EE10FA03DB1FED782A77EE827AE2
:10351800FDEEC12A12EE902A002AC0F2758140F60B
:10352800FF718A42A8BF0A4693B2A4F8103294F8F1
:10353800BB22BAB390ED2C5A5FED833A29EE854A47
:103548005FED844AD0ED2D5A44EE234A29EE250A30
:1035580090ED2E6A40EE234A68EE860AD0ED2F6A77
:1035680040EEA34A28EE267A5FED911A47EE234AE9
:1035780024EE831AB4EEE11AF1EE10FA03DB1FED24
:10358800952A77EE827AFDEEC12A12EE903A002B48
:10359800C0F22A8140F6FF718B42A8BF0B469AB24F
:1035A800A4F8122294F8BC32BBB390ED305A5FED08
:1035B800A03A29EE854A5FEDA14AD0ED315A44EE92
:1035C800234A29EE250A90ED326A40EE234A68EE36
:1035D800860AD0ED336A40EEA34A28EE267A5FEDDC
:1035E800AE1A47EE234A24EE831AB4EEE11AF1EE3E
:1035F80010FA03DB1FEDB32A77EE827AFDEEC12ABB
:1036080012EE902A002AC0F2F18040F6FF718A4239
:10361800A8BF0A4693B2A4F8143294F8BD22BAB3EC
:1036280090ED345A5FEDBE3A29EE854A5FEDBF4A08
:10363800D0ED355A44EE234A29EE250A90ED366A34
:1036480040EE234A68EE860AD0ED376A40EEA34A78
:1036580028EE267A5FEDCC1A47EE234A24EE831A29
:10366800B4EEE11AF1EE10FA03DB1FEDD02A77EE83
:10367800827AFDEEC12A12EE903A002BC0F2C28087
:1036880040F6FF718B42A8BF0B469AB2A4F81622E7
:1036980094F8BE32BBB390ED385A5FEDDB3A29EEB1
:1036A800854A5FEDDC4AD0ED395A44EE234A29EECB
:1036B800250A90ED3A6A40EE234A68EE860AD0ED74
:1036C8003B6A40EEA34A28EE267ADFED521A47EE0F
:1036D800234A24EE831AB4EEE11AF1EE10FA03DB62
:1036E8009FED4D2A77EE827AFDEEC12A12EE902ADE
:1036F800002AC0F2858040F6FF718A42A8BF0A46B8
:1037080093B2A4F8183294F8BF22BAB390ED3C5A99
:10371800DFED423A29EE854ADFED414AD0ED3D5AC8
:1037280044EE234A29EE250A90ED3E6A40EE234AEC
:1037380068EE860AD0ED3F6A40EEA34A28EE267A64
:103748009FED341A47EE234A24EE833AB4EEC13A89
:10375800FDEEC31AF1EE10FAA8BF9FED2F1A11EE75
:10376800900AA8BF77EE817A002839DB40F6FF730C
:103778009842A8BF184681B2A4F81A12C4EDAB7AD1
:10378800FFF7E8F994EDAB2ADFED237A32EE675ABA
:10379800B5EEC05AF1EE10FA38D4DFED222AB4EEB5
:1037A800625AF1EE10FAC8BFB0EE625A84EDAB5A15
:1037B80084EDA79AC4EDA88A84EDA98AC4EDAA9AD3
:1037C800BDEC048B10BDDFED169A00E4002271E613
:1037D800002286E4002349E40023BAE500226CE5D0
:1037E8000021C9E70023B7E40022D9E6002312E745
:1037F8000022E9E5002322E60022E8E4002321E58F
:1038080000237EE7002241E700238EE69FED045A5D
:10381800CCE700BF00F07F459A99193E0AD7233CB0
:103828000000000000C07F4438B5134D95F8D13230
:1038380053B101240020E1B21BF02CF895F8D122F5
:10384800204601348242F5DC6968B9B108791AF07A
:1038580073FC0378022093B901201EF065FB064A29
:10386800506800791AF068FC017839B901201EF017
:103878005BFB002038BD00BF44A600100120AB68E8
:103888008BB118791AF058FC027802205AB9012035
:103898001EF04AFB9448816808791AF04DFC0378B9
:1038A800002BE3D00120EA688AB110791AF044FCB1
:1038B8000178022059B901201EF036FB8A48C368F6
:1038C80018791AF039FC0278002ACFD0012029692A
:1038D80089B108791AF030FC037802205BB901201D
:1038E8001EF022FB8048026910791AF025FC017845
:1038F8000029BBD001206B698BB118791AF01CFC28
:10390800027802205AB901201EF00EFB7648416960
:1039180008791AF011FC0378002BA7D00120AA69B6
:103928008AB110791AF008FC0178022059B90120EF
:103938001EF0FAFA6C48836918791AF0FDFB0278D0
:10394800002A93D00120E96991B108791AF0F4FBB3
:103958000378022063B901201EF0E6FA6248C269C2
:1039680010791AF0E9FB017800293FF47FAF0120B4
:103978002B6A93B118791AF0DFFB0278022062B93A
:1039880001201EF0D1FA5848016A08791AF0D4FBD0
:103998000378002B3FF46AAF01206A6A92B110796C
:1039A8001AF0CAFB0178022061B901201EF0BCFAA6
:1039B8004D48436A18791AF0BFFB0278002A3FF491
:1039C80055AF0120A96A91B108791AF0B5FB0378BF
:1039D800022063B901201EF0A7FA4348826A1079D1
:1039E8001AF0AAFB017800293FF440AF0120EB6AE6
:1039F80093B118791AF0A0FB0278022062B901206D
:103A08001EF092FA3848C16A08791AF095FB0378D3
:103A1800002B3FF42BAF01202A6B92B110791AF0DA
:103A28008BFB0178022061B901201EF07DFA2E4837
:103A3800036B18791AF080FB0278002A3FF416AF5E
:103A48000120696B91B108791AF076FB037802209E
:103A580063B901201EF068FA2348426B10791AF006
:103A68006BFB017800293FF401AF0120AB6B93B1E8
:103A780018791AF061FB0278022062B901201EF061
:103A880053FA1948816B08791AF056FB0378002B12
:103A98003FF4ECAE0120EA6B92B110791AF04CFBBE
:103AA8000178022061B901201EF03EFA0E48C36B6E
:103AB80018791AF041FB0278002A3FF4D7AE0120AA
:103AC800296CA9B108791AF037FB007888B9012068
:103AD8001EF02AFA044B1A6C10791AF02DFB0178A3
:103AE80000293FF4C3AE01E044A60010012038BD10
:103AF80038BD022038BD00BF38B5084D95F8D13221
:103B080053B101240020E1B21AF00AFF95F8D1223E
:103B1800204601348242F5DC38BD00BF44A60010BF
:103B28002DE9F04F2DED048B7E48DFF80C9285B01F
:103B380003F084F800217C484FF4357227F032FBFB
:103B4800D9ED3E7A9FED7D7AF4EEC77AF1EE10FA60
:103B580007DD9FED760AF4EEC07AF1EE10FA00F177
:103B68008D84714B724A9FED738A1C461146F0EEA4
:103B7800488AB0EE489A1A609A4600250126A2F5AE
:103B88008C7B01EB0517D7ED000AF5EE400AF1EE44
:103B980010FA40F0D58097ED011AB5EE401AF1EE13
:103BA80010FA40F0CD80D7ED021AF5EE401AF1EE8A
:103BB80010FA40F0C58097ED032AB5EE402AF1EEE1
:103BC80010FA40F0BD800135102D0AF1040A00F00A
:103BD800ED80276807EB051797ED007AB5EE407A78
:103BE800F1EE10FA14D197ED010AB5EE400AF1EEA4
:103BF80010FA0DD1D7ED020AF5EE400AF1EE10FAEF
:103C080006D197ED031AB5EE401AF1EE10FA30D04E
:103C1800D9ED3C1ABCEEE12A06FA05F112EE103A8B
:103C2800194240F05E81DBED3D2ABCEEE23A13EE2C
:103C3800102A11EA020340F06C810D2D40F3E28254
:103C48005FFA85F8601980F8B06294F8D0126218AB
:103C58004B1C82F8C08284F8D032D7ED013A97ED38
:103C6800024AD7ED036A39EE239A78EE848A38EE51
:103C7800268A20686F1C00EB0718D8ED004AF5EE7D
:103C8800404A0AF10401F1EE10FA039114D198EDBB
:103C9800015AB5EE405AF1EE10FA0DD1D8ED025A9C
:103CA800F5EE405AF1EE10FA06D198ED036AB5EE3A
:103CB800406AF1EE10FA2FD0D9ED3C7ABCEEE77AE3
:103CC80006FA07F317EE102A134240F010819BED15
:103CD8003D0AFCEEC00A10EE900A034040F0148141
:103CE8000D2F40F37B825FFA87FCE71987F8B062F3
:103CF80094F8D032E218581C82F8C0C284F8D00276
:103D080098ED011AD8ED021A98ED032A39EE019AB6
:103D180078EEA18A38EE028A02350AF1080A21688B
:103D28002FE700BFFCEB020844A60010EC518040CE
:103D3800A8A100100000000090A000100AD7233CA2
:103D4800D9ED3C2ABCEEE23A06FA05F013EE101A59
:103D5800084240F0C080DBED3D3ABCEEE34A14EE89
:103D6800103A034040F0C9800D2D5FFA85F840F302
:103D780028826219013582F8B06294F8D0022118BD
:103D8800431C81F8C08284F8D032D7ED016AD7EDA0
:103D9800024A97ED035A102D39EE269A78EEA48A36
:103DA80038EE058A0AF1040A7FF413AFB0EE490A27
:103DB80026F000FD5FED1F5AB4EEE50AF1EE10FAA9
:103DC80000F33782B0EE680A26F0F4FC1FED256A8E
:103DD800B4EEC60AF1EE10FA00F32782B0EE480AF4
:103DE80026F0E8FC5FED2B7AB4EEE70AF1EE10FA64
:103DF80000F317826568A34E6DB1012128790A4640
:103E08001AF0C8FB96F8D17206F18402781C726425
:103E180086F8D1020125A1689A4E89B16F1C0879EC
:103E2800FAB201211AF0B6FB012D00F0068296F8CD
:103E3800D13206F184055A1CB56486F8D1223D4674
:103E4800E168904EA1B16F1C0879FAB201211AF00D
:103E5800A1FB012D00F0F581022D00F01D8396F8DD
:103E6800D13206F184055A1CF56486F8D1223D4604
:103E78002669844FD6B105F10108012130795FFA2E
:103E880088F21AF087FB022D00F0E081032D00F084
:103E9800FD82012D00F0058397F8D16207F18405B2
:103EA800731C3D6587F8D132454600266369002BAF
:103EB8003ED006F101086F1C18795FFA88F1FAB252
:103EC8001AF068FB032D00F24C82DFE815F027009A
:103ED800510256025B022846FEF7CEFD5FFA85F8CE
:103EE80047E72846FEF7C8FD5FFA85F8AAE6384690
:103EF800FEF7C2FD5FFA87FCF7E605F11000FEF752
:103F0800BBFD5FFA85F834E707F11000FEF7B4FD52
:103F1800E9E605F11000FEF7AFFD91E694F8D1024D
:103F280004EBC6018431431C616584F8D1323D46F7
:103F3800A269DAB106F101086F1C10795FFA88F1FD
:103F4800FAB21AF027FB032D00F22182DFE815F000
:103F5800040026022B02300294F8D11204EBC602A8
:103F680084324B1CA26584F8D1323D46E069D8B151
:103F780006F101086F1C00795FFA88F1FAB21AF0AD
:103F880009FB032D00F21982DFE815F004001E0278
:103F98002302280294F8D13204EBC6028432581C5A
:103FA800E26584F8D1023D46216AD9B106F10108DB
:103FB8006F1C0879FAB25FFA88F11AF0EBFA032D50
:103FC80000F21182DFE815F0040016021B0220023D
:103FD80094F8D10204EBC6028432411C226684F8AC
:103FE800D1123D46636ADBB106F101086F1C1879EE
:103FF8005FFA88F1FAB21AF0CDFA032D00F20982BD
:10400800DFE815F004000E021302180294F8D1122A
:1040180004EBC60284324B1C626684F8D1323D46FA
:10402800A06AD8B106F101086F1CFAB200795FFAEC
:1040380088F11AF0AFFA032D00F20182DFE815F0DB
:10404800040006020B02100294F8D13204EBC602F7
:104058008432581CA26684F8D1023D46E16AE9B16F
:1040680006F101086F1C0879FAB25FFA88F11AF0B4
:1040780091FA032D00F22E81DFE815F006003301D6
:1040880038013D0144A6001094F8D10204EBC602A1
:104098008432411CE26684F8D1123D46236BDBB1C1
:1040A80006F101086F1CFAB218795FFA88F11AF064
:1040B80071FA032D00F22481DFE815F004002901CC
:1040C8002E01330194F8D11204EBC60284324B1C42
:1040D800226784F8D1323D46606BD8B106F10108F9
:1040E8006F1C00795FFA88F1FAB21AF053FA032DBF
:1040F80000F21C81DFE815F00400210126012B01E4
:1041080094F8D13204EBC6028432581C626784F8F2
:10411800D1023D46A16BC9B106F101086F1C0879AF
:10412800FAB25FFA88F11AF035FA032D00F2148119
:10413800DFE805F002B0B5BA94F8D10204EBC60284
:104148008432411CA26784F8D1123D46E36BCBB19F
:1041580006F101086F1C18795FFA88F1FAB21AF0B3
:1041680019FA032D00F2A780DFE805F002AAAF765E
:1041780094F8D11204EBC60284324B1CE26784F82F
:10418800D1323D46206C88B1711C6A1CD2B20079CC
:10419800C9B21AF0FFF9032D08D8DFE805F0646FFB
:1041A800750204EBC6038A33C4F88030FEF7D4FDE9
:1041B800AE48012105B0BDEC048BBDE8F04F1AF004
:1041C80095BE44F2402100934046C0F20F014FF4DF
:1041D800C87216F0EBF9CAF8A401CAE55FFA87FCC1
:1041E80044F240216046C0F20F0100934FF4C872B8
:1041F800CDF808C016F0DAF90399C1F8A401DDF882
:1042080008C072E55FFA85F844F240210093404601
:10421800C0F20F014FF4C87216F0C8F9CAF8A40129
:1042280010E5934802F00AFDE4E5924802F006FD25
:10423800D4E5914802F002FDC4E506F18600B064B9
:10424800FDE506F18601F1643D4611E607F18801B6
:1042580039654546002629E604EBC6068A36E66730
:10426800464600258EE794F8D13204EBC602843224
:10427800581CC4F8802084F8D10297E704EBC601E3
:104288008631C4F8801091E704EBC6008830C4F882
:1042980080008BE704EBC6038633A36755E704EB7E
:1042A800C6058835A56750E704EBC6068A36A667B3
:1042B800464600254AE7042F3D467FF463AFCFE723
:1042C80004EBC6008630E0675BE704EBC60588357B
:1042D800E56756E7042F3D467FF4E0AE46460025E5
:1042E800DCE604EBC6038633E366D6E604EBC605D4
:1042F8008835E566D1E604EBC6068A36E666EDE75C
:10430800042F3D467FF4E8AE46460025E4E604EB7C
:10431800C60086302067DEE604EBC60588352567CB
:10432800D9E604EBC6068A362667EDE7042F3D4634
:104338007FF4F0AE46460025ECE604EBC601863174
:104348006167E6E604EBC60588356567E1E604EBD8
:10435800C6068A366667EDE7042F3D467FF4F6AE5B
:10436800A6E7042F3D467FF4E3AD46460025DFE58A
:1043780004EBC60286326265D9E504EBC6058835CA
:104388006565D4E504EBC6068A366665EDE7042F55
:104398003D467FF4EBAD46460025E7E504EBC60055
:1043A8008630A065E1E504EBC6058835A565DCE542
:1043B80004EBC6068A36A665EDE7042F3D467FF472
:1043C800F3AD46460025EFE504EBC6018631E1650D
:1043D800E9E504EBC6058835E565E4E504EBC606C2
:1043E8008A36E665EDE7042F3D467FF4FBAD464689
:1043F8000025F7E504EBC60386332366F1E504EBF5
:10440800C60588352566ECE504EBC6068A362666B9
:10441800EDE7042F3D467FF403AE46460025FFE551
:1044280004EBC60086306066F9E504EBC6058835FE
:104438006566F4E504EBC6068A366666EDE7042F82
:104448003D467FF40BAE4646002507E604EBC60161
:104458008631A16601E604EBC6058835A566FCE54C
:1044680004EBC6068A36A666EDE700BF512A0008A7
:10447800A0EC020878EC02084CEC02080C4805B0E5
:10448800BDEC048BBDE8F04F02F0D8BB07F18A0001
:1044980038650025012609E506F18800F0643D46E7
:1044A800E6E407F186023A6545460026FEE400BFC9
:1044B8000CEC02082DE9F00FAA4B197A93F806C004
:1044C800FF2986B0024600F0D88008062FD4987AD3
:1044D800FF2800F0D78010F0800F28D11C7BFF2C1C
:1044E80000F0D68014F0800F21D19D7BFF2D00F0C5
:1044F800D58015F0800F1AD11E7CFF2E00F0D480D5
:1045080016F0800F13D19F7CFF2F00F0D38017F097
:10451800800F0CD192F81C80B8F1020F00F02681B0
:10452800B8F1070F00F0CF80B8F1010F04D00020D8
:1045380006B0BDE8F00F704718795979894C41EAFF
:10454800002589481561D0ED037A9879BDEEE70A10
:10455800FF2810EE101A00F0A781E579C0F3C30414
:1045680000F00706A14245EA062000F0F780A0F512
:104578008065966926F8145001201C7A794DFF2C25
:1045880000F0B0816D7A04F00706C4F3C304A142B9
:1045980045EA062000F0AE81A0F58065966926F808
:1045A800145001209C7A6F4DFF2C00F09681ED7A13
:1045B80004F00706C4F3C304A14245EA062000F04C
:1045C8009681A0F58065966926F8145001201C7B19
:1045D800644DFF2C00F07C816D7B04F00706C4F36A
:1045E800C304A14245EA062000F08A81A0F580654F
:1045F800966926F8145001209C7B5A4DFF2C00F038
:104608006281ED7B04F00706C4F3C304A14245EAC6
:10461800062000F07281A0F58065966926F814508E
:1046280001201C7C4F4DFF2C00F048816D7C04F06C
:104638000706C4F3C304A14245EA062000F06381DB
:10464800A0F58065966926F8145001209B7C454C9E
:10465800FF2BE47C00F02E8103F00700C3F3C303B3
:1046680044EA0024994292690CBFA4F5A974A4F500
:10467800806422F8134001205AE7587AFF287FF413
:1046880056AF24E7374CE47AFF2C7FF450AF25E788
:10469800344D6D7BFF2D7FF44AAF26E7314EF67B14
:1046A800FF2E7FF444AF27E72E4F7F7CFF2F7FF448
:1046B8003EAF28E7DFF8AC8098F81380B8F1FF0F19
:1046C8007FF435AF26E793F8058093F8099093F8BF
:1046D80007B0CDF80490C4445BFA8CFC93F80BA0A7
:1046E80093F80D90CDF808A051FA8CF1DDF804C0CC
:1046F800CDF80C905CFA81F150FA81F1029893F8A8
:104708000FA0DDF80CC0CDF810A050FA81F193F895
:10471800119093F813A0CDF8149054FA81F05CFA34
:1047280080F10498DDF814C093F8049055FA81F1EB
:1047380050FA81F156FA81F05CFA80F157FA81F06B
:104748005AFA80F1C8B281457FF4F1AE08F01F0132
:1047580018F0800F11613FF4EAAE0CE0A0F5A975DE
:1047680007E700BF18A9001090A000101C7958791D
:1047780040EA042111617F4998797F4CD1ED030A01
:10478800BDEEE01AFF2811EE101A00F0C880E47997
:1047980000F0030544EA0524C0F383006500814264
:1047A80000F0E480A5F58065946924F81050187A23
:1047B800714CFF2800F0AE80647A00F0030544EAEB
:1047C8000524C0F383006500814200F0CC80A5F584
:1047D8008065946924F81050987A674CFF2800F097
:1047E800B180E47A00F0030544EA0524C0F38300AD
:1047F8006500814200F0AE80A5F58065946924F8D3
:104808001050187B5C4CFF2800F09780647B00F008
:10481800030544EA0524C0F383006500814200F0E3
:104828009680A5F58065946924F81050987B524CC1
:10483800FF287DD0E47B00F0030544EA0524C0F39B
:1048480083006500814200F08B80A5F5806594693E
:1048580024F81050187C484CFF2865D0647C00F080
:10486800030544EA0524C0F383006500814274D03F
:10487800A5F58065946924F810509B7C3E48FF2B71
:10488800C07C43D003F0030440EA0420C3F383034D
:104898004000926999420CBFA0F5A971A0F580610A
:1048A80022F81310012043E6E579FF2D7FF456AE78
:1048B800002062E6FF2C7FF4CFAE39E66D7CFF2D39
:1048C8007FF4B5AEC2E6ED7BFF2D7FF49BAEA8E684
:1048D8006D7BFF2D7FF481AE8EE6ED7AFF2D7FF4A0
:1048E80067AE74E66D7AFF2D7FF44DAE5AE6A0F5FB
:1048F800A97568E6A0F5A97550E6A0F5A9758CE636
:10490800A0F5A97574E6A0F5A9759BE6FF28B9D1AD
:1049180001200DE6647AFF2C7FF44FAF5CE7E47961
:10492800FF2C7FF435AF42E7647CFF2C97D1A4E7D6
:10493800E47BFF2C7FF47FAF8CE7647BFF2C7FF454
:1049480066AF73E7E47AFF2C7FF44CAF59E7A5F51F
:10495800A97568E7A5F5A97550E7A5F5A97589E7CB
:10496800A5F5A97573E7A5F5A97532E7A5F5A975A4
:104978001AE700BF90A0001018A900104FF4406279
:10498800C4F200020E4B526A30B41C6841F64C5512
:10499800141BAC4201D900241C751C7D1A60621CD2
:1049A8001B19D4B2102C1971054903D00C750020BD
:1049B80030BC704700230B7530BCFFF77BBD00BFD0
:1049C80018A9001030B504464AF6181083B00D46F1
:1049D80018220021C1F2000026F0E4FB0022009218
:1049E80028464FF4E1314023FCF700FB606003B038
:1049F80030BD00BF38B5294CD4ED7E7AB1EE047ACB
:104A0800F4EEC77AF1EE10FA37D4B2EE010AF4EEFA
:104A1800C07AF1EE10FA1FD4DFED210AF4EEE07A45
:104A2800F1EE10FA31D4B3EE011AF4EEC17AF1EED8
:104A380010FA26D4DFED1B1AF4EEE17AF1EE10FA43
:104A480027D49FED192AF4EEC27AF1EE10FA06D5B2
:104A5800062384F8043202E0022584F8045202F0A6
:104A6800DBF84021114A94F90432054626F02CF966
:104A78002846BDE8384002F0E1B8012384F8043242
:104A8800EDE7042184F80412E9E7032284F80422FC
:104A9800E5E7052084F80402E1E700BFFC070020F1
:104AA800CDCC4C416666AA416666CE41C8EC020888
:104AB8002DE9F04F2DED0C8B9FEDAB5B91B0AC4821
:104AC800DFF8CCB2DFF8CCA2DFF8CC928DED0A5B30
:104AD80002F0B4F89DED0A0BDBF85831DFEDA59A2A
:104AE80018788DED0E0B8DED0C0B00229FEDA29A20
:104AF800DFEDA2AADFEDA2BA9FEDA2AA9FEDA2CA9E
:104B080007920890F0EE698AB0EE698A0992B0EED1
:104B180069BA00219BF80100DFF874821CF08EFA54
:104B2800DBF86C51DBF84020DBF84410DBF8480078
:104B3800DBF84C60DBF85070DBF87C40DBF8543075
:104B4800049603970695DBF85850DBF85C60DBF8B1
:104B580060E0DBF86470029305971719DBF8804072
:104B6800DBF884200195009685180E190498DBF867
:104B78008810039ADBF88C30DBF868C04418D0182A
:104B88000299DBF89020DBF894308918019AD21842
:104B9800CBF89420DBF89830009AD218CBF89820FC
:104BA800CBF87C70CBF88060DBF86C70CBF8845065
:104BB800DBF87060CBF88840DBF87450DBF878409D
:104BC800DBF89C30DBF8A020CBF88C00DBED105A2A
:104BD8009BED117AF8EE651AB8EE471A21EE893A7C
:104BE80021EE092ADBED546ADBED537AB5EE006A53
:104BF800DBED120A42EE066A43EE067AF8EE602A08
:104C0800DAEDF04A9AEDEF4A62EE893ADBED55CAE1
:104C180048EE246A48EE047A9AEDF3DA9AEDF20A3D
:104C280043EE86CADAEDF1DA48EE8D6A48EE807A0C
:104C38009AEDF65ADAEDF55A48EE2DCA49EEA57AFC
:104C48009AEDF47A49EE856A48EE87CADAEDF70AF2
:104C58009AEDFB1AB1EE662AF0EE671A42EE011AD7
:104C68009E4449EEA0CA059BCBF890109B18DBF830
:104C7800A420CBF8A030DAEDFC2A9AEDFD3A0BF12E
:104C8800A800F1EE6C3A9444B0EE616A0FC803EEE6
:104C9800A26A57EE836ADAEDFE4A9AEDF84A43EEC5
:104CA800A46A86EE04DA3F18CBF89CE0CBF8A4C0DF
:104CB800CBF8A8707118354ECBF8AC10AA18E318C9
:104CC800CBF8B020CBF8B430DAEDF9DAC6EEAD6A3D
:104CD800DBED440A99ED020A40EE0D0A99ED011A3E
:104CE80096ED005A9AEDFF7A41EE660A22EE052A01
:104CF80007EE872AF6EE005A60EEA51ADAEDFA7A80
:104D0800CBED441A72EE6CCADBED452A8CEEA76A2D
:104D180046EE802A4DEE012A22EEA53A8BED453A61
:104D2800DBED463A73EE864A24EEA54A8BED464AF9
:104D380010F0EEFD079D8DB3D8F84C70D8F88810A8
:104D4800D8F85040D8F88C20D8F89030D8F85400CB
:104D5800CE1B151B1F1AC8F88860C8F88C50C8F8F5
:104D680090701BE0AFF3008000000000000000001E
:104D7800DCEC020800000000CAD6A436711B7D3F97
:104D8800FFFF7943A323393C0022A14890A40010D7
:104D980030A9001090A00010FCC50010069911F071
:104DA800010440F067839BED1F8ADBED226ADBED8F
:104DB800240ADBED209ADBED21DA9BED230A9BED3B
:104DC800255A9BED261A9BED277ADBED285ADBED59
:104DD800297ADBED2A1A9BED2B6AF8EE488AB8EEA1
:104DE800662AB8EE608ADBED2C6ADBED2D0AF8EE58
:104DF8006DCAB8EE69DAF8EE61DAF8EE679AF8EE9D
:104E0800402AF8EE667AB8EE460AB8EE453AF8EE69
:104E1800413AB8EE474AF8EE654AB8EE607A6CEE69
:104E2800891A29EE895A6DEE895A60EE099A67EE59
:104E380089DA27EE090A68EE898A2DEE09DA22EE68
:104E4800092A62EE892A28EE098A23EE093A63EED6
:104E5800893A24EE094A64EE894AB4EE006AF6EE0D
:104E680000CAF5EE006A68EE860A2DEE061A61EEB3
:104E7800868A22EE26DA62EEA61A28EE267A69EEED
:104E8800867A24EE068A23EE2C2A25EE864A24EE1C
:104E9800863A63EEAC2A6DEEAC4A65EE063A20EE31
:104EA8002C5ACBED2E0ACBF87C408BED2F1ACBF881
:104EB8008040CBED308ACBF884408BED31DACBEDF6
:104EC800321A8BED337A8BED342ACBED352A8BED04
:104ED800368A8BED373ACBED383A8BED394ACBED44
:104EE8003A7ACBED3B4A8BED3C5ACBF88840DBED68
:104EF800345ADBED3B9ADBED3CDA8CEE2D0ACBF82D
:104F08008C40CBF89040CBF89440CBF89840CBF845
:104F18009C40CBF8A040CBF8A440CBF8A840CBF8F5
:104F2800AC40CBF8B040CBF8B440F84EB7EE046ACA
:104F380075EEC60A79EEC66AB3EE091AF0EE418A32
:104F480040EEAB8A06EEAB1A78EE8B1A31EE0B2ADE
:104F5800DBED3D2A9BED3E8A21EE8A7A22EE0A3A63
:104F68009FEDEB4A02EEAA7A08EE2A3A70EE447AEE
:104F7800DBED3F3A17EE900A63EEAA9A8BED3D7A85
:104F88008BED3E3A23F0FCFC41EC100B25F04EF87B
:104F980051EC100B23F010FD04EE900ADFEDDDDA82
:104FA8009FEDDD5A64EEA45A04EEAD5A25EEA40A2C
:104FB8009FEDDA6A00EE065ADFEDD90A75EE606AEF
:104FC800F0EE691A76EE8B8A9BED2E1A48EE8A1A55
:104FD8009BED2FDA9BED542A9BED533AF3EE042A0E
:104FE80031EEE28ADAEDF03ADAEDEF9A7DEE02DAA6
:104FF80071EE037A48EE23DA48EE297A68EE088AD9
:10500800DAEDF34ADAEDF25A9BED304A9BED557A28
:105018009AEDF15A48EEA4DA48EEA57A68EE889A35
:1050280034EE070A9AEDF66ADAEDF56A08EE050A33
:1050380049EEA67ADAEDF40A49EE86DA08EEA00A15
:105048009AEDF71A9AEDFBDAF1EE6D2AB0EE673AAF
:1050580002EE8D3A09EE810A9AEDFD2A57EE82DAC0
:10506800DAEDFC3A9AEDFE4AAE4AF1EE404AB0EE6D
:10507800437A04EEA37A92ED005A44EE84DA9AED6C
:10508800FF6ADAEDF80ADAEDF96A62EE855A47EE58
:10509800865A87EE201A40F2FC73C2F20003CDEE66
:1050A800A6DADAEDFA7A35EEC00A99ED014A80EE11
:1050B80027DAD9ED024A24EE2D2A61EE042A14EEED
:1050C800812A4DEEA42A8BED472ACBED482A8BED99
:1050D80049DA9FED957A9BED353A63EE073A93ED01
:1050E8007E5ACBED3F1ACBED401ADBED361ADAEDDE
:1050F800B00A9BED371ADAEDB16ADAEDB3DA9AED58
:10510800B40A23EE8A6A9BED38DA05EE2A6A71EE54
:10511800A05ADAEDB27A31EE262A9AEDB53A48EE7F
:105128002D5A08EE002ADAEDB62A9AEDB77A7DEE06
:10513800271A48EE031ADAEDB93A48EEA25A08EEF1
:10514800872A83ED7E6A9AEDB86A29EEA35ADAEDCA
:10515800BF0A9AEDC01A48EE861ADAEDBCDA9AED63
:10516800BD7A75EE856A48EE20DA75EE025A08EEC9
:10517800017A9AEDC80A9AEDCADA9AEDC22ADAEDEE
:10518800C32A75EE213AB1EE663AB0EE655ADAED09
:10519800C11A55EE806A03EE0D5ADAEDBE7A48EE72
:1051A80082DA08EEA27A9AEDC96A9AEDCB0ADAEDAC
:1051B800C50A9AEDC6DAB1EE632A48EE217A42EEC4
:1051C800066A02EE005A9AEDCD1ADAEDC42A49EEC3
:1051D800A0DA09EE8D7ADAEDCC1A65EE815A48EE3E
:1051E800A27A43EE215A9AEDC76AC6EEADDA85EE89
:1051F800077A49EE867A75EEE36A24EE073AC6EE38
:10520800A73A64EE2D7A14EEAD3A44EE877A8BED28
:105218004A3ACBED4B7ACBED4C3A9FED440ADBEDA5
:10522800390A9BED3A5A9FED42DA9BED412A9BEDF4
:10523800421A70EE802A75EE001A02EE8D2A01EEEF
:105248008D1A92ED037A62EE2C5A61EE2CDAB5EEE5
:10525800407AF1EE10FACBED415ACBED42DA40F04C
:105268008C81C6ED435ADBED313ADBED507A9BED8C
:10527800320ADBED510A08982E4D33EEE7DA0028A2
:10528800DAEDCEDA30EE602A9AEDCF7ABFEE001A68
:10529800B7EE005A08BFB0EE451A4DEE01DA02EE3D
:1052A800017ADAEDD12ADAEDD21A48EE22DA08EEDE
:1052B800217ADAEDD45A9AEDD56A48EEA5DA08EEE5
:1052C800867A9AEDD73ADAEDD8CADBED333ADBEDD8
:1052D800526A49EE83DA09EEAC7A73EEE67A00F0A8
:1052E800388195EDD05AD5EDD31A35EE67DA08EE48
:1052F80021DAD5EDD65A08EEA5DA95EDD96A09EE88
:1053080086DAFF27F1EE4D2A18E000BF30A9001019
:105318000050C347B9FCD5402A89274396210E3D42
:105328000080884390A400102C1591401283A03E61
:105338000986034790A00010BD3786359AEDDD3AFF
:10534800DAEDDE3ADAEDDACADAEDDB6ADAEDE67AD8
:105358009AEDE80A48EE03CA48EE236AB0EE6D1AE1
:10536800F0EE471A07EE271A4DEE801ADAEDE00A3A
:105378009AEDE12A9AEDDF3A48EEA0CA48EE826A31
:105388009AEDDC6ADAEDE73ADAEDE97A9AEDE30AC2
:10539800DAEDE40A08EE036AB0EE415AF0EE615A1B
:1053A80002EEA35A42EEA75A9AEDEB1A9AEDE22AB8
:1053B80049EE80CA49EEA06ADAEDEA2A27EE017AB8
:1053C80008EE826A0DEEA27ADAEDE5DAC5EEA66A93
:1053D80009998BF880714C1C0994C5EE2CCA09EE0A
:1053E800AD6A37EE4DDA24EE265ACDEE061A24EED3
:1053F8002C4A14EEAC5A04EEA64A8BED4D5A8BEDAE
:105408004E4ACBED4F1ADBF8C40023F0B9FA024636
:105418000B46DDE90C0123F00DFBCDE90C01DBF8AF
:10542800C80023F0ADFA02460B46DDE90E0123F071
:1054380001FBCDE90E01DBF8CC0023F0A1FA02460E
:105448000B46DDE90A0123F0F5FADBF87861DBF8B1
:105458007431720004EE902A1FED493AF8EE645A4E
:10546800CDE90A0125EE836ACBF870318BED5F6ACE
:1054780010F058FADBF85801089905684D4FA94211
:1054880063D015F0FF0608965BD0099823F092F9CF
:1054980004460D4622462B46DDE90C0123F0C4FCE8
:1054A80023F08AFA0DEE900A22462B46C7ED50DA11
:1054B800DDE90E0123F0B8FC23F07EFA0DEE100AA8
:1054C80022462B4687ED51DADDE90A0123F0ACFCD0
:1054D80023F072FAC7F84801099F642F0CEE900A6E
:1054E80055DD7DEEAD3A13EE900A23F049FA0246F7
:1054F8000B46DDE90C0123F09BFA7DEE0D7ACDE930
:105508000C0117EE900A23F03BFA02460B46DDE940
:105518000E0123F08DFA3CEEAC0ACDE90E0110EE37
:10552800100A23F02DFA02460B46DDE90A0123F0A2
:105538007FFACDE90A01B81E012109900791FFF70A
:10554800E8BA01230793FFF7E4BA00240794FFF7AA
:10555800E0BA95EDD00AD5EDD30A37EE80DA08EE39
:1055680020DA95EDD62A08EE82DA95EDD91A09EEF9
:1055780081DA0127F1EE4D2AE0E6B7EE006AB4EED3
:10558800467AF1EE10FA06D1C6ED43DA6BE601224F
:105598000792FFF7BEBAF0EE006AB4EE667AF1EE53
:1055A80010FA7FF460AE35EEAD3A63EE2CCAC6ED64
:1055B80043CA58E630A9001038B56420FBF78EF8C6
:1055C800192010F0F7F83548DFED357AD0F870215A
:1055D800B0EE677AF0EE676A19250446D0F87031A4
:1055E8002E499342FAD0D4F8702194ED2E5AD4ED76
:1055F8002F5A94ED306A013D76EE856A37EE257AAA
:1056080077EE867AEAD1B3EE090AC6EE800A254813
:105618000023C1F81C31C1F82031C1F8243187EECC
:10562800001AC7EE801A91ED402AF3EE042A32EEF2
:10563800623AD0EDEF4AD0EDF03A90EDF14A43EE00
:10564800240A03EE231A43EE041A63EE035A90ED7C
:10565800F26AD0EDF36A90EDF45A45EE860A05EE4B
:10566800A61A45EE851A23EE257AD0EDF57A90ED47
:10567800F60A90EDF72A47EE270A07EE001A47EEDA
:10568800021AF1EE600AB1EE411AF1EE611AC1EDAB
:10569800530A81ED541AC1ED551A38BD30A90010CE
:1056A8000000000090A000102DE9F04F4EF6F040E9
:1056B8004AF630189DB0C1F20008C0F602004FF457
:1056C800805401F0BBFAC4F2020400214FF4C27204
:1056D800404625F067FD01224FF480612046FAF725
:1056E800C5FE0022C8F858014FF480712046FAF729
:1056F800BDFE0022C8F85C014FF480512046FAF73D
:10570800B5FE4FF40066C4F2020600224FF40041D1
:10571800C8F860013046FAF7A9FEC8F8640101A884
:1057280021F0FAFC002004464FF0030AFD2301A9EA
:10573800C4F2020001938DF808A08DF80B4021F007
:1057480043FC4FF4806001A9C4F20200CDF804A024
:1057580046F2704521F038FC3F22304601A9C4F2D8
:105768000205019221F030FC01214FF4E06021F0A4
:105778009FFD42F20837A321284640F60826C8F8BC
:105788006811C4F2010721F02FF9C2F20006602364
:105798004FF480624FF0040B0DA928460F960E9720
:1057A800119313924FF480734FF440324FF4006713
:1057B8004FF4005616931497159617920D9410945B
:1057C8001294CDF860B0CDF864A01A941B9421F01F
:1057D80001FA01222846182121F088FA4FF23D01EA
:1057E8002846CAF2000121F0A1FA0121284689467B
:1057F8003C2521F045FA68468DF800508DF80140A7
:105808008DF802408DF8039020F054FE03A820F094
:10581800DBFE4FF48047162103A84FF40055C4F26D
:10582800010503910597049420F0B6FE07A820F01F
:10583800A9FE102607A928468DF8306007948DF830
:1058480020908DF8219009940B9420F073FE28463F
:1058580007214A46022320F0C7FE022228461346A3
:10586800072120F0C1FE284607215246022320F0D6
:10587800BBFE284607215A46022320F0B5FE2846DB
:105888000E210522022320F0AFFE28460E21062213
:10589800022320F0A9FE28460E210722022320F029
:1058A800A3FE2846082202230E2120F09DFE0F2188
:1058B80028460922022320F097FE28460F210A22B3
:1058C800022320F091FE28460F210B22022320F00C
:1058D8008BFE28460F210C22022320F085FE284645
:1058E80008210D22022320F07FFE284608210E22DF
:1058F800022320F079FE284608210F22022320F0F7
:1059080073FE102202232846082120F06DFE4FF472
:10591800045749462846C4F2010720F0B9FE07A8F3
:1059280020F030FE102307A938468DF83030079450
:105938008DF820908DF8219009940B9420F0FAFDB1
:10594800384609214A46022320F04EFE02223846F4
:105958001346092120F048FE384609215246022301
:1059680020F042FE38465A460223092120F03CFE28
:10597800384659460522022320F036FE3846594655
:105988000622022320F030FE384659460722022319
:1059980020F02AFE384659460822022320F024FE29
:1059A800384605210922022320F01EFE384605212B
:1059B8000A22022320F018FE384605210B22022372
:1059C80020F012FE384605210C22022320F00CFE9E
:1059D800384606210D22022320F006FE384606210D
:1059E8000E22022320F000FE384606210F22022351
:1059F80020F0FAFD4FF408560223062110223846FB
:105A0800C4F2010620F0F0FD07A820F0BBFD10222B
:105A1800304607A98DF8302007948DF820908DF82E
:105A2800219009940B9420F085FD304651464A4652
:105A3800022320F0D9FD022230465146134620F0B9
:105A4800D3FD022330465146524620F0CDFD304664
:105A580051465A46022320F0C7FD30460A21052246
:105A6800022320F0C1FD30460B210622022320F03C
:105A7800BBFD022130460B46072220F0B5FD02216E
:105A880030460B46082220F0AFFD022130460B4677
:105A9800092220F0A9FD022130460B460A2220F0F7
:105AA800A3FD30460D210B22022320F09DFD0C2181
:105AB80030460A46022320F097FD304621460D2243
:105AC800022320F091FD304621460E22022320F0C9
