:020000040800F2
:1000000078D300103F020008890100086D04000841
:100010008D0100088F010008910100080000000018
:100020000000000000000000000000009301000834
:100030009501000800000000A9610208F5600208AF
:100040009B0100089D0100089F010008592C010830
:10005000A3010008A501000871D501088DD501088C
:10006000A9D50108C5D50108E1D50108B1CE01081F
:10007000B3010008B5010008B7010008DD1400084D
:10008000BB010008BD010008BF010008C101000854
:10009000C3010008C5010008C7010008FDD501081B
:1000A000D5A10108CD010008CF010008B1A00108C9
:1000B000D3010008D5010008B5A00108D901000846
:1000C000DB010008DD010008DF010008E101000894
:1000D000E30100088D130008FD1300086D140008EB
:1000E00075D60108ED010008AD1D02089106020851
:1000F000F3010008F5010008F7010008F901000804
:10010000FB0100085D4A0108151E010801020008F4
:10011000011500080502000807020008C53502089D
:10012000A5CE01080D0200080F020008614A01086F
:1001300013020008BDCE0108C9CE01088DEC0108EC
:1001400029EC01081D0200081F020008E11D020839
:1001500023020008711500086913000895150008AE
:100160002B0200082D0200082F02000831020008AF
:100170003302000835020008D5CE0108996800084E
:080180003B0200083D020008EB
:10018800FEE7FEE7FEE7FEE7FEE7FEE7FEE7FEE73F
:10019800FEE7FEE7FEE7FEE7FEE7FEE7FEE7FEE72F
:1001A800FEE7FEE7FEE7FEE7FEE7FEE7FEE7FEE71F
:1001B800FEE7FEE7FEE7FEE7FEE7FEE7FEE7FEE70F
:1001C800FEE7FEE7FEE7FEE7FEE7FEE7FEE7FEE7FF
:1001D800FEE7FEE7FEE7FEE7FEE7FEE7FEE7FEE7EF
:1001E800FEE7FEE7FEE7FEE7FEE7FEE7FEE7FEE7DF
:1001F800FEE7FEE7FEE7FEE7FEE7FEE7FEE7FEE7CF
:10020800FEE7FEE7FEE7FEE7FEE7FEE7FEE7FEE7BE
:10021800FEE7FEE7FEE7FEE7FEE7FEE7FEE7FEE7AE
:10022800FEE7FEE7FEE7FEE7FEE7FEE7FEE7FEE79E
:10023800FEE7FEE7FEE71348854624F045FC4EF648
:100248008850CEF20000016851F47001016000BFCF
:1002580000BF00BFF1EE100A50F04070E1EE100A46
:100268004FF0000080F314884EF63C71CEF2000186
:10027800086850F04070086003480449016000F0C5
:1002880007B870470000022008ED00E000000008F1
:100298002C49072291438D462B482C492C4A00F0C3
:1002A8003EF82C482C492D4A00F039F82C482D49A5
:1002B8002D4A00F034F82D482D492E4A00F02FF829
:1002C8002D482E492E4A00F02AF82E482E492F4A4A
:1002D80000F025F82E482F49002200F02BF82E4870
:1002E8002E49002200F026F82D482E49091A08291F
:1002F80003DB00220260043001601D481D4988426A
:1003080005D00268043003B4904703BCF7E7002027
:100318008646EC4600200021234A9047FEE78842A3
:1003280007D0521A05D0037801300B700131013A19
:10033800F9D17047884202D002700130FAE770475D
:100348001A48704778D30010207503080000002071
:100358005C080020B8030008B80300081C3F030825
:100368007C7D0308FC980120FC9801201C3F0308B1
:100378001C3F03081C3F03081C3F03081C3F0308DD
:100388001C3F03081C3F03081C3F03082075030893
:100398005C080020FC5001200000001078CF0010FD
:1003A800FC500120FC980120B9030008FFFFFFFF63
:1003B80038B515F01BFC00F067FB4FF4A0602CF07B
:1003C80001FE24F05DFC43F61C71C0F603014FF4F6
:1003D800C87000F049F941F2083400F23C63054660
:1003E800C2F2000449F20C0241F619700021C0F271
:1003F8000102C0F60100256025F082FC24F082FC91
:10040800002038BD4EF6FC52CEF200024FF4805365
:1004180011682DE9F041CEF2000341F080701060C0
:100428001D680E4E0E4C45F0010241F2040782B0E1
:100438001A600025CEF20007B04600F049F823689C
:10044800591C21603868451B0195019B326893420D
:1004580002D20199C8F800100546EEE70000002016
:100468005C08002008B502F0CBFBFEE770B54B082E
:1004780082B00D46064625D00020441C5B08E0B239
:10048800FBD107281DD906F1047315330838590123
:1004980001EB8004684622602DF0CCFB0223002289
:1004A80030468DF805306946012300958DF8062001
:1004B8008DF804308DF807202DF014FB204602B08B
:1004C80070BD830006F10474143403EB4414E1E7AF
:1004D8002DE9F84FDFF8A880D8F80030002B38DD78
:1004E800254F002407F11A06254607F1620A07F18D
:1004F800320937F8020F00283AD054F80A100A785F
:10050800FF2A37D1002310F0010F0A4610D101232A
:10051800834210DA4978FF291A4409D00BE012F80F
:10052800011FFF2907D112F8011F0133FF2902D14A
:1005380001338342F3DB36F8020B9842C8BF26F832
:10054800023C0F2B07DDD8F8002001350434AA42FD
:10055800CFDCBDE8F88F05F059FC40218346074AF7
:1005680059F8043031F04CFA584605F061FCEAE7D6
:100578000346E0E70023DEE7FEFFFF0F243F030802
:10058800680800202DE9F041104E3368002B07461B
:1005980019DD0025DFF838802C4603E030688442F6
:1005A800254610DA08EB85013846096B142231F02C
:1005B800CFFA0134A4B20028F0D1054A02EB450570
:1005C800288BBDE8F0810020BDE8F0816808002094
:1005D8000000001038B500FB01F474B131F0ACF93B
:1005E800094B0A4A05461868116824188C421C6091
:1005F80088BF146025B1284638BD2546284638BD31
:10060800034805F015FCF6E7600800206C08002098
:10061800443F030838B50C46154630B131F09CF913
:10062800024B1A6804FB15241C6038BD60080020C2
:1006380038B50A4D01FB00F1CC1C2B68A408E01862
:10064800B0F5205F05D828600549021B01EB820040
:1006580038BD044805F0ECFB2868F5E7640800207D
:10066800900000105C3F03082DE9F843174C870001
:10067800BEB225684FEA960808EB0500B0F5205F82
:1006880089461DD82060124CC8EB000104F1900384
:1006980003EB81053A46FF21284631F01FFC0D4A3D
:1006A800136804EB830104EB4307581C10600D66C4
:1006B80024F813603E83C1F830902846BDE8F883DB
:1006C800054805F0B5FB2068DDE700BF6408002099
:1006D80000000010680800205C3F03084FF44063E6
:1006E800C4F200031A46596A4018536A9842FCD863
:1006F800704700BF4FF44062C4F200024FF47A71B1
:10070800536A01FB0030536A9842FCD8704700BF17
:1007180070B582B005F07AFB0446022002F0E0F8DA
:100728000546012002F0DCF80646002002F0D8F861
:1007380043F670720190009620464021C0F60302ED
:100748002B4631F05DF9204602B0BDE8704005F057
:100758006FBB00BF30B585B005F058FB044621F0EB
:10076800E3FB054621F0DCFB0823019002930620F9
:1007780043F6887243F6B4730390009520464021EF
:10078800C0F60302C0F6030331F03AF9204605B07B
:10079800BDE8304005F04CBB70B584B005F036FBC1
:1007A8000446022002F09CF80646012002F098F860
:1007B8000546002002F094F843F670724021334653
:1007C800C0F6030201900095204631F019F9204641
:1007D80005F02EFB05F01AFB0446002002F080F815
:1007E80044F6D353C1F26203A3FB00121309FA259E
:1007F80043F6C07205FB13034021C0F603022046EE
:1008080031F0FEF8204605F013FB05F0FFFA40F63C
:100818007801C2F200014DF683630A68C4F21B3303
:10082800A3FB021543F6D472AB0C4021C0F60302B9
:10083800044631F0E5F8204605F0FAFA40F660047F
:1008480005F0E4FA40F66C01C2F20004C2F20001BD
:1008580023680C6843F6E8724021C0F60302054697
:10086800009431F0CDF8284605F0E2FA05F0CEFA0A
:1008780040F66403C2F2000344F204021D68AB00B0
:100888004FF420454021C0F603020446009531F09C
:10089800B7F8204605F0CCFA642025F06FFB05F088
:1008A800B5FA044621F040FB054621F039FB062243
:1008B80001900392082043F6887243F6B4730290BD
:1008C800009520464021C0F60302C0F6030331F02C
:1008D80097F8204604B0BDE8704005F0A9BA00BFFB
:1008E80080ED010A704700BFC0EE200A80ED011AB2
:1008F800C0ED000A704700BFC0EE200A80ED011A63
:10090800C0ED000AC0ED020A80ED031AC0ED040A2A
:1009180080ED051A704700BFD0ED017A90ED007A9E
:1009280030EE670A40EE077AB0EE670AC0ED017A4A
:10093800704700BFD0ED057AD0ED046A30EE670A43
:1009480090ED037A40EE267AD0ED020A37EEC76AB8
:1009580090ED010A06EE207A90ED001A77EE401A23
:10096800C0ED057A01EE810A80ED037A80ED010A77
:10097800704700BFF0B52DED048BB5EEC00AF1EE5F
:1009880010FA87B0B0EE408A04460E465ED40025C1
:10099800B0EE480A2FF07AFA40B16019374931F0C1
:1009A800D5FA032007B0BDEC048BF0BDB0EE480AC1
:1009B8002FF080FA074600284ED1062E28BF0626BB
:1009C80007EE906AB2EE040AF8EEE70A30F0B8FAD9
:1009D800B5EEC08AF1EE10FABDEEC09A07DDB0EEB2
:1009E800480A30F091F9BDEEC00A10EE107A00EE18
:1009F800907AB2EE040AF8EEE00A30F0A1FA88EE36
:100A0800008AB7EE001AB4EEC18AF1EE10FA29D4C2
:100A1800FDEEC88A32461A4902A831F007F8B8EE46
:100A2800E82AB8EEC99A78EE422A02A922EE893A53
:100A380018EE902ABDEEC38A009718EE103A601996
:100A480030F0F4FF204631F0D3FAABE72D230370E2
:100A5800B1EE408A01259BE760190A4931F076FA20
:100A680003209FE7B5EE408AF1EE10FAD0D0F2EEFF
:100A7800041A28EE218A013FCAE700BF1C40030878
:100A8800244003082040030830B5012183B01F200B
:100A98004FF480652DF080F9C4F2020568464FF4E2
:100AA80000642DF0C7F8C4F2020403224FF6FF7366
:100AB800284669468DF8042000932DF013F8204647
:100AC80069462DF00FF84FF440606946C4F2020001
:100AD8002DF008F84FF480506946C4F202002DF05A
:100AE80001F8002049F6FF736946C4F2020000933A
:100AF8002CF0F8FF202101222046FFF7B7FC40F632
:100B08007002C2F200021021106000222046FFF796
:100B1800ADFC40F67401C2F20001012208604FF4F6
:100B280080612846FFF7A2FC40F68803C2F2000362
:100B3800012118604FF4C0002DF02EF901214FF467
:100B480080402DF053F9272001212DF041F9032091
:100B58000121C0F207002DF049F901202DF0E6FC33
:100B68002DF086F940F67800C2F200002DF098F8D2
:100B780019F01CF803B030BD30B4836990F84C20EC
:100B88006AB9416999420AD04469A34209D24169C4
:100B9800426905698261CC1A90F84C1049B130BCA1
:100BA80070478261C56890F84C10EC1A05690029F5
:100BB800F5D1826B4065EB18054D012180F84C108A
:100BC80005651046D360546030BC2CF0E7BD00BF0B
:100BD800810B000838B590F84C400CB1002038BDA6
:100BE800856B0365049B012480F84C404365E960EC
:100BF800284621466A602CF0D1FD204638BD00BF4A
:100C08002DE9F043012085B088465C219146FFF725
:100C1800E1FC364B0446012502A800261C60022789
:100C28002DF008F8102029468DF80D508DF80C701D
:100C38008DF80E608DF80F502DF0D8F8B04514BF20
:100C4800404680200146E0612846FFF7C3FC206249
:100C5800304607220A21C4F202002CF0FDFF30467C
:100C68004FF4806202A9C4F2020002922CF03AFF0B
:100C7800334646F24040C1F23D034FF00068C4F2EB
:100C88000200636449466063C4F83C80C4F80C9071
:100C98002846FFF79FFC2061304607220921C4F24D
:100CA80002002CF0D9FF30464FF4007202A9C4F2BA
:100CB800020002922CF016FF46F2B841C4F202017B
:100CC8004FF03D50A064462301A8A163C4F84080BA
:100CD8008DF804308DF805708DF806608DF8075092
:100CE8002CF07AF9204605B0BDE8F0838C08002086
:100CF8002DE9F043012085B088465C219146FFF735
:100D080069FC354B0446012502A800261C60022711
:100D18002CF090FF29464FF400208DF80D508DF8E7
:100D28000C708DF80E608DF80F502DF051F8B0450D
:100D380014BF404680200146E0612846FFF74AFC80
:100D48002062304608222946C4F202002CF084FFB3
:100D5800304602A9C4F2020002972CF0C3FE3346C3
:100D680046F24002C1F23D03C4F202024FF00068AD
:100D7800636449466263C4F83C80C4F80C90284612
:100D8800FFF728FC2061304608223146C4F20200F1
:100D98002CF062FF304602A9C4F2020002952CF042
:100DA800A1FE3D2046F27001C4F20201C2F2000029
:100DB800A0640F2201A8A163C4F840808DF8042024
:100DC8008DF805708DF806608DF807502CF004F941
:100DD800204605B0BDE8F083980800202DE9F043CF
:100DE800012085B088465C219146FFF7F3FB384B1C
:100DF8000446012502A81C6000262CF01BFF0227D0
:100E0800202029468DF80D508DF80C708DF80E6055
:100E18008DF80F502CF0EAFFB04514BF40468020F3
:100E28000146E0612846FFF7D5FB20624FF40060D9
:100E380008220721C4F202002CF00EFF4FF40060D4
:100E4800802202A9C4F2020002922CF04BFE46F264
:100E580028404FF47463C1F200034FF02068C4F2D5
:100E68000200636449466063C4F83C80C4F80C908F
:100E78002846FFF7AFFB20614FF4006008220621E7
:100E8800C4F202002CF0E8FE4FF40060402202A9F0
:100E9800C4F2020002922CF025FE304646F2A04130
:100EA800C4F20201C2F23D00A064452301A8A16377
:100EB800C4F840808DF804308DF805708DF8066010
:100EC8008DF807502CF088F8204605B0BDE8F0836F
:100ED8009C0800202DE9F0474FF48054C4F2010427
:100EE800A04298B006468846174600F0C8804FF4DE
:100EF8008840C4F20000864200F0C8804FF4904158
:100F0800C4F200018E4200F004814FF49842C4F20A
:100F18000002964200F042814FF4A055C4F2010548
:100F28000024AE4200F0A4800020014624F038F8E6
:100F38000025A5620121656284F85800A561304644
:100F4800A78026636561C4F80080E58025812DF0BF
:100F58003FFF05A82DF022FF2168A388B4F808E018
:100F6800E788206B05910C2205A9ADF82030ADF873
:100F78001AE0ADF81E20ADF81850ADF81C702DF031
:100F88009DFE0121206B2DF015FF09A82CF0F4FB24
:100F9800606B0E95311D4FF480630A910F93109585
:100FA80011951395159500285BD02CF0ABFA226AA1
:100FB800E16BE369606B09910B9209A94FF48072A8
:100FC8000D9312920C951495169517952CF090FB8D
:100FD800606B616C2CF0FCFB0121606B2CF0DEFB7C
:100FE8003046402101222DF001FF606B2CF0ECFB14
:100FF800E062A06B00282DD02CF084FA256CE36801
:1010080009950025AB4208BF10234022A06B0C9223
:1010180009A94FF400020D93042314931692129514
:1010280017952CF065FBA06B29462CF0CBFBA06B29
:10103800102101222CF0E8FB3046802101222DF0FE
:10104800D5FE5A48016819B1204618B0BDE8F087A6
:101058000460F9E7304640F2277101222DF0D0FEF6
:10106800EFE7304640F2255101222DF0C9FEC0E7D6
:1010780038461946209AFFF7B1FE044654E7104651
:101088001946209AFFF7BCFD04464DE75C21012074
:101098000193FFF79FFA46490125044603A84FF03C
:1010A80000094FF0020A0C602CF0C4FD29464FF4E9
:1010B80000308DF811508DF810A08DF812908DF831
:1010C80013502CF085FE0198484508BF8020014642
:1010D800E0612846FFF77EFA20624846072203218E
:1010E800C4F202002CF0B8FD48460823C4F20200FE
:1010F80003A903932CF0F6FC262202A88DF80820F9
:101108008DF809A08DF80A908DF80B502BF064FF2C
:101118000AE75C2101200193FFF75CFA254B04469E
:10112800012503A81C602CF085FD00230222294616
:101138004FF480208DF812308DF810208DF8115062
:101148008DF813502CF044FE0198002808BF802029
:101158000146E0612846FFF73DFA20624FF48060BF
:101168000722C4F202000B212CF076FD4FF48060B8
:1011780003A9C4F202004FF4006503952CF0B2FCF9
:1011880046F228014FF47463C4F20201C1F200036D
:101198004FF000626163E2636364C5E6384619464E
:1011A800209AFFF7A5FD0446BEE600BFA008002070
:1011B80090080020940800204269036930B49954CB
:1011C8004169C368846B4A1CB2FBF3F103FB11222B
:1011D80042619CB1826990F84C1069B94569AA428C
:1011E8000AD04569AA423CBF4369416905698161E2
:1011F80090F84C109B1A41B130BC7047006B40F21C
:101208002771012230BC2DF0FBBDAA18054D4065A1
:10121800012180F84C1005652046E260636030BC0F
:101228002CF0BCBA810B0008436B2BB15968C36A18
:10123800C81A18BF01207047826A406A101A18BF7E
:1012480001207047426B10B403465AB1C06AD9698D
:101258001A6A081A105CDA6A013ADA6202B9D962C3
:1012680010BC7047806A196ADA69085C9C6A611C5C
:10127800B1FBF2F402FB14129A62F1E770B504466E
:1012880084B001600121006B2DF0A2FD68462DF0AD
:1012980085FD2368A2882689E588206B0093694626
:1012A8000023ADF80C200C22ADF80430ADF8066030
:1012B800ADF80850ADF80A202DF000FD206B012193
:1012C8002DF078FD04B070BD70B5044684B0C180BF
:1012D8000121006B2DF07CFD68462DF05FFD236831
:1012E800A2882689E588206B009369460023ADF81B
:1012F8000C200C22ADF80430ADF80660ADF80850AB
:10130800ADF80A202DF0DAFC206B01212DF052FDFA
:1013180004B070BD70B5044684B001810121006B32
:101328002DF056FD68462DF039FD2368A2882689E0
:10133800E588206B009369460023ADF80C200C2249
:10134800ADF80430ADF80660ADF80850ADF80A20E5
:101358002DF0B4FC206B01212DF02CFD04B070BDE4
:1013680040F68C03C2F2000310B51C68A06BA16C98
:101378002CF02EFA002084F84C00216D606D88470F
:1013880010BD00BF1A4B1B68196B0A8892B202F095
:10139800200080B210B460B1586A8C88196AE4B22F
:1013A8000C54586AD9690130B0FBF1F401FB1401FF
:1013B800596202F0800290B280B199695A699142EB
:1013C8000ED098691A69196B105CDA688880996977
:1013D8000131B1FBF2F002FB10129A6110BC7047A8
:1013E800186B40F22771002210BC2DF009BD00BF18
:1013F8008C0800201A4B1B68196B0A8892B202F0FD
:10140800200080B210B460B1586A8C88196AE4B2BE
:101418000C54586AD9690130B0FBF1F401FB14018E
:10142800596202F0800290B280B199695A6991427A
:101438000ED098691A69196B105CDA688880996906
:101448000131B1FBF2F002FB10129A6110BC704737
:10145800186B40F22771002210BC2DF0D1BC00BFE0
:10146800900800201A4B1B68196B0A8892B202F088
:10147800200080B210B460B1586A8C88196AE4B24E
:101488000C54586AD9690130B0FBF1F401FB14011E
:10149800596202F0800290B280B199695A6991420A
:1014A8000ED098691A69196B105CDA688880996996
:1014B8000131B1FBF2F002FB10129A6110BC7047C7
:1014C800186B40F22771002210BC2DF099BC00BFA8
:1014D8009408002040F69803C2F2000310B51C6877
:1014E800A06BA16C2CF074F9002084F84C00216DDD
:1014F800606D884710BD00BF1A4B1B68196B0A88BE
:1015080092B202F0200080B210B460B1586A8C88A0
:10151800196AE4B20C54586AD9690130B0FBF1F485
:1015280001FB1401596202F0800290B280B19969FE
:101538005A6991420ED098691A69196B105CDA6879
:10154800888099690131B1FBF2F002FB10129A61AF
:1015580010BC7047186B40F22771002210BC2DF0A8
:101568004FBC00BF9808002040F69C03C2F200035D
:1015780010B51C68A06BA16C2CF02AF9002084F827
:101588004C00216D606D884710BD00BF1A4B1B6869
:10159800196B0A8892B202F0200080B210B460B1D0
:1015A800586A8C88196AE4B20C54586AD9690130AF
:1015B800B0FBF1F401FB1401596202F0800290B211
:1015C80080B199695A6991420ED098691A69196B64
:1015D800105CDA68888099690131B1FBF2F002FB8E
:1015E80010129A6110BC7047186B40F227710022E4
:1015F80010BC2DF005BC00BF9C0800202DE9F00FA1
:101608004AF29003C1F200032DED0A8BF0EE08BAFE
:101618009FEDFECA9FEDFEBAC3ED06BAC3ED0FBA41
:10162800DFEDFCBA83ED00CABFEE00CA83ED01CA44
:10163800C3ED10BA83ED17BA83ED18BAB1EE08CA34
:10164800DFEDF5BA9FEDF5BA83ED09CAB1EE0CCA24
:1016580083ED0ACAC3ED11BA83ED1ABAB2EE00CA15
:10166800DFEDEFBA9FEDEFBA83ED0BCAB2EE02CA17
:10167800DFEDED7ADFEDED6ADFEDED3A83ED0CCAD3
:10168800C3ED13BA83ED1BBAB2EE04CADFEDE9BAB3
:101698009FEDE9BAB7EE007AB3EE046AF5EE004AB8
:1016A800B0EE005AB1EE049AF1EE002A83ED0DCAAD
:1016B800B2EE06CAC3ED027AC3ED037A83ED047A6B
:1016C80083ED055AC3ED072A83ED089A83ED0ECA08
:1016D800C3ED127AC3ED146AC3ED156AC3ED16BAE9
:1016E80083ED196AC3ED1C7AC3ED1D7A83ED1EBA2A
:1016F800C3ED1F4AC3ED203AC3ED213AC3ED223AA8
:10170800DFEDCE3AC3ED243ADFEDCD3A9FEDCD4A79
:10171800C3ED253ADFEDCC3A83ED284AC3ED263AEE
:1017280083ED294A83ED2A4ADFEDC83A9FEDC84A7E
:10173800C3ED274A83ED2B4AC3ED2C3AC3ED2F4A5C
:101748009FEDC44ADFEDC43ADFEDC44A9FEDC4AA59
:10175800DFEDC4AA83ED2D4AC3ED2E3AC3ED314A1D
:101768009FEDC14ADFEDC13ADFEDC14ADFEDC15A55
:10177800F7EE049A83ED23AAC3ED30AAC3ED32AA8B
:1017880083ED33AAC3ED346A83ED354AC3ED367A67
:10179800C3ED377AC3ED389AC3ED393AC3ED3A7AD7
:1017A800C3ED3B9AC3ED3C7AC3ED3D7AC3ED3E7A77
:1017B800C3ED3F7AC3ED407A9FEDAF4AC3ED417A5E
:1017C800C3ED454ADFEDAD4AC3ED427AC3ED437A36
:1017D800C3ED447AC3ED467AC3ED477AC3ED487A40
:1017E800C3ED497AC3ED4A7AC3ED4B7AC3ED4C7A1F
:1017F800C3ED4D7AC3ED4E7AC3ED4F7AC3ED507AFF
:10180800C3ED517AC3ED527AC3ED537AC3ED547ADE
:10181800C3ED557AC3ED567AC3ED577AC3ED587ABE
:10182800C3ED597AC3ED5A7AC3ED5B7AC3ED5C7A9E
:10183800C3ED5D7AC3ED5E7AC3ED5F7AC3ED607A7E
:10184800C3ED617AC3ED627ADFED8D3AC3ED637A59
:10185800C3ED647AC3ED657AC3ED667AC3ED677A42
:10186800C3ED687AC3ED697AC3ED6A7AC3ED6B7A22
:10187800C3ED6C7AC3ED6D7AC3ED6E7AC3ED6F7A02
:10188800C3ED707AC3ED717AC3ED727AC3ED737AE2
:10189800C3ED747AC3ED757AC3ED767AC3ED777AC2
:1018A800C3ED787AC3ED797AC3ED7A7AC3ED7B7AA2
:1018B800C3ED7C7AC3ED7D7AC3ED7E7AC3ED7F7A82
:1018C800C3ED807AC3ED817AC3ED827AC3ED837A62
:1018D800C3ED847AC3ED857AC3ED865AC3ED8A5A7F
:1018E800C3ED8B5AC3ED8C5A83ED8D5A83ED915A13
:1018F800F7EE085AB2EE055ADFED628ADFED621A9A
:101908009FED628A83ED874AC3ED894AC3ED965AF3
:1019180083ED9A5A9FED5E4ADFED5E4ADFED5E5A2F
:101928009FED5E5AB0EE040AC3ED883A83ED946ADF
:1019380083ED9C6A83ED9D6AF6EE003AB3EE0E6A7B
:1019480003F2AC5103F2144703F5826C03F20C481E
:1019580003F5816903F2044A03F5806B03F5B46665
:1019680003F2A45503F5B56403F5B662C3ED8E7AA8
:10197800C3ED8F7AC3ED907AC3ED927AC3ED937A73
:1019880083ED959AC3ED977AC3ED987A83ED997AAA
:1019980083ED9B4A83ED9E6AC3ED9F3AC3EDA07A1F
:1019A800C3EDA18AC3EDA27AC3EDA38AC3EDA41A3D
:1019B800C3EDA54AC3EDA65A83EDA78A83EDA88A8D
:1019C80083EDA95AC3EDAA7A83EDAB0AC3EDAC7ACD
:1019D80083EDAD0AC3EDAE7AC3EDAF7AC3EDB07A4D
:1019E800C3EDB17AC3EDB27AC3EDB37AC3EDB47A7D
:1019F800C3EDB57AC3EDB67AC3EDB77AC3EDB87A5D
:101A0800C3EDB97AC3EDBA7A50E000BF00000043D5
:101A180000002042004088440000BD4400C0B44497
:101A28003333333F0000344300000000CDCC4C3D3D
:101A3800003C1C46000070420028074700A0B44440
:101A48009A99393F0000C143000070430000914358
:101A58000080594452491D3B004003460000B443EE
:101A68000000964400403544ACC5A7370AD7233D4B
:101A7800004083440000E147000061480000E1485D
:101A8800001B374A00C079440000484300002F4437
:101A98008FC2F53B6666364000001643CDCC4C3EFF
:101AA80000A00C4500803B44A913503CC3EDBB7A11
:101AB80083EDBC7A83EDBD7A83EDBE7AC3EDBF7A40
:101AC800C3EDC07AC3EDC17AC3EDC27AC3EDC37A60
:101AD800C3EDC47AC3EDC57AC3EDC67AC3EDC77A40
:101AE800C3EDC87AC3EDC97AC3EDCA7AC3EDCB7A20
:101AF800C3EDCC7AC3EDCD7AC3EDCE7AC3EDCF7A00
:101B0800C3EDD07AC3EDD17AC3EDD27AC3EDD37ADF
:101B1800C3EDD47AC3EDD57AC3EDD67AC3EDD77ABF
:101B2800C3EDD87AC3EDD97A83EDDA7A83EDDB7A1F
:101B380083EDDC7AC3EDDD7AC3EDDE7AC3EDDF7ABF
:101B4800C3EDE07AC3EDE17AC3EDE27AC3EDE37A5F
:101B5800C3EDE47AC3EDE57AC3EDE67AC3EDE77A3F
:101B6800C3EDE87AC3EDE97AC3EDEA7AC3EDEB7A1F
:101B7800C3EDEC7AC3EDED7AC3EDEE7AC3EDEF7AFF
:101B8800C3EDF07AC3EDF17AC3EDF27AC3EDF37ADF
:101B9800C3EDF47AC3EDF57AC3EDF67AC3EDF77ABF
:101BA80083EDF87A83EDF97A83EDFA7AC3EDFB7A5F
:101BB800C3EDFC7AC3EDFD7AC3EDFE7AC3EDFF7A7F
:101BC80000235FED490A1FED491ACCF28223CAF8B7
:101BD8000030A1F5CA73C7ED007AC3ED000A87ED9E
:101BE800021AC3ED020A87ED041AC3ED041A183766
:101BF8004FF46043C4F2C4433B604FF48043C4F2E3
:101C0800B4437B6040F64133C3F63443CBED007AEE
:101C1800C9ED007AC8ED007ACCED007ABB6040F6D9
:101C2800A163C3F66A43FB604DF20A73C3F6A3339C
:101C38003B61A1F5B673C3ED007AC3ED027A4FF4A8
:101C48008043C4F203537B620023C4F27A43BB622D
:101C5800A1F5AA73C3ED007AC3ED027A0023C4F29A
:101C68006003FB6343F23333C4F253033B6445F62A
:101C7800C043C4F213137B6441F25D63C4F26D1375
:101C8800BB6449F63643CCF26B23C7ED067AC7ED41
:101C9800087AC7ED0C7AC7ED0E7AFB64503743F229
:101CA8006673C4F2E9233B604DF2AE63CCF2D623EF
:101CB8007B6042F6CD131FED842AC4F21723BB6064
:101CC800A1F59273C3ED007AC3ED027A83ED042A7D
:101CD80040F2DE53C3F6CA43BAEE043A7B62A1F57A
:101CE800847383ED003A0023CCF2C813FB624EF6EE
:101CF8008533C4F26913C7ED047AC7ED067A87ED18
:101D0800082A3B6387ED0D7A87ED0E7AC7ED0F2A17
:101D18004CF6CD43C7ED106A87ED113A4837C4F247
:101D280094133B60C7ED027A07F15C03C7ED047AB0
:101D3800C7ED067AC7ED017AC7ED037AC7ED057AD4
:101D4800C7ED077AC7ED087AC7ED097AC7ED0A7AB1
:101D5800C7ED0B7AC7ED0C7AC7ED0D7AC7ED0E7A91
:101D6800C7ED0F7AC7ED107AC7ED117AC7ED127A71
:101D7800C7ED137AC7ED147AC7ED157AC7ED167A51
:101D880044F238006037C7ED007AC7ED027AC7ED34
:101D9800047AC7ED067AC3ED007AC3ED027AC3ED83
:101DA800047AC3ED067AC3ED087AC0F60300C7EDDE
:101DB800087AC7ED0A7AC7ED0C7AC7ED0E7AC7ED37
:101DC800107AC7ED127AC7ED147AC7ED167AC7ED07
:101DD800187AC7ED1A7AC7ED1C7AC7ED1E7A7837DC
:101DE800C3ED0A7AC3ED0C7AC3ED0E7AC3ED107A0F
:101DF800C3ED127AC3ED147AC3ED167AC3ED187ADF
:101E0800C3ED1A7AC3ED1C7AC3ED1E7AC6ED007ACB
:101E1800C5ED007AC4ED007AC1ED007AC2ED007A12
:101E2800BDEC0A8BBDE8F00F04F002B801464FF094
:101E3800016050F81C2D0132FBD1072200F0D8BBFD
:101E480000214FF0016353F81C2D824208BF194648
:101E58000132F8D1084670472DE9F04700F03CFD03
:101E6800194FDFF8688000F5E45A06460AF1040ABB
:101E780040F2B4593046396810222FF001FE10B9EB
:101E88003269124B1A6004243959102230462FF057
:101E9800F7FD251D1022444408B9306920603046FA
:101EA80079592FF0EDFD18B9316908EB0502116079
:101EB8002C1D4C45E8D114365645DBD10448BDE805
:101EC800F04703F0B5BF00BF0400002090A0001049
:101ED8005C4003082DE9F84340F26D101421FEF729
:101EE80079FB074600287DD0002304464FF00166A1
:101EF800B3B153F81C2C511CA3F11C0519D0C5B162
:101F0800206818B904E054F81C0F08B19042FAD1BF
:101F1800204629461C222FF0BDFF2B46002BE8D176
:101F280056F81C2C531C04D04FF6E475C0F60F0568
:101F3800E6E700F0D1FC40F2217100F0C5FBC4B225
:101F480000202BF0E1FC2BF0EDFC01202BF0DCFC59
:101F5800002C3BD03B6873B13C464FF0016050F811
:101F68001C1D4B1CFBD12146072200F041FB54F8F5
:101F78001C0F0028F1D1DFF884901D4EA9F5B66535
:101F88001022384629682FF085FF326807F11404BB
:101F98003A616968102220462FF07CFF736804F1CB
:101FA80014082361A968102240462FF073FFB16816
:101FB80008356162083628344D45EAD100F08CFCBA
:101FC800394640F2217200F013FBC4B2384640F2A1
:101FD8006D111422FEF71EFB064803F029FF204668
:101FE800BDE8F883044803F023FF3C46F7E700BF49
:101FF80090A000108C400308B8400308B4050020E6
:1020080010B503684268D118B1F5B77F044603D309
:10201800C3F5B67201324260054904F1080001EBCC
:10202800830192002FF036FF6068800010BD00BF6A
:1020380090A0001070B504460E4D0068626804F167
:1020480008069200314605EB80002FF023FF236835
:102058006268D118B1F5B77F03D3C3F5B670421CD7
:10206800626005EB8301304692002FF013FF63682E
:10207800980070BD90A000102DE9F04F814683B004
:102088008A46112001211446FEF7A4FA05460028C5
:1020980066D0BAF1000F48DD334E344FCA4407E02A
:1020A80040F6A402C2F2000213550134D1453CD0D7
:1020B80019F8013B0A2B01D07F2CF1D140F6A4007E
:1020C800C2F200000023035529492A4601AB2FF02C
:1020D800C3FC022832D128463168112240F2B45894
:1020E8002FF0CEFC10B90198204908604FF0040B7E
:1020F800112256F80B1028462FF0C2FC0BF10404ED
:10210800112207EB0B0308B90198186028463159CA
:102118002FF0B6FC10B93919019A0A6004F1040BC2
:10212800C345E5D10024D145C2D128461121012259
:10213800FEF770FA204603B0BDE8F08F0D480E494F
:102148002A4601AB2FF088FC0228C4D009480B4965
:102158002A4601AB2FF080FC0228BCD00024E2E71D
:102168004FF0FF34E6E700BF0400002090A0001005
:10217800F8400308A4080020184103081041030888
:10218800274B70B5002808BF184617F005FC061E37
:1021980037DB4FF400700121FEF71CFA00250446D6
:1021A800002833D021464FF0FF324FF400733046F9
:1021B80017F048FC2A46051E2946204612DDFFF77F
:1021C8005BFF051EEEDA304617F090FC20464FF410
:1021D80000710122FEF71EFAFF25124803F028FEBF
:1021E80068B270BD304617F081FC20464FF400718C
:1021F8000122FEF70FFA8DB90B4803F019FE68B2F9
:1022080070BD0A4803F014FEFF25E9E7084803F00B
:102218000FFE304617F06AFCFF25E1E7EDB2DCE778
:1022280020410308C4410308904103082C410308D6
:10223800544103082DE9F0472DED028B00F04CFBCB
:10224800564FDFF85C8100F5E45A06460AF1040AA5
:1022580040F2B4593046396810222FF011FC10B9F9
:1022680032694F4B1A6004243959102230462FF036
:1022780007FC251D1022444408B930692060304607
:1022880079592FF0FDFB18B9316908EB0502116087
:102298002C1D4C45E8D114365645DBD1414803F096
:1022A800C7FD0020FFF76CFF002870DB13F050FC1F
:1022B80000F012FB90ED048AB0EE480A2DF0FAFD0A
:1022C800B0B9DFED397AB4EEE78AF1EE10FA11D43D
:1022D80098ED000AB4EEC08AF1EE10FA23DAB4EEF3
:1022E800C80AF1EE10FA18DCBDEC028BBDE8F087E5
:1022F8009FED2E8A98ED000A9FED2B7AB4EEC70A5F
:10230800F1EE10FAE6D5FFF779F9254B93ED000ABF
:10231800B4EEC80AF1EE10FAE6DDBDEC028BBDE8BA
:10232800F047FFF7D7BD00F0D7FA00F5E4550646A9
:1023380005F1040A40F2B4593046396810222FF0EA
:102348009FFB10B93469164B1C60042439591022BC
:1023580030462FF095FB251D102208EB040108B923
:1023680030690860304679592FF08AFB18B932690C
:1023780008EB050422602C1D4C45E7D11436564560
:10238800DAD1084803F054FD98ED000AA7E70021C8
:102398004A4603482FF0A2FD8AE700BF0400002048
:1023A80090A000105C4003080000004300000000FB
:1023B80070B506460D4610200121FEF70BF90446BC
:1023C800B8B10D4B03EB850191ED000A0A21FEF728
:1023D800D1FA0A480A4950F82520234630462FF0FA
:1023E80025FB1021C5B201222046FEF713F968B279
:1023F80070BD054668B270BD90A0001004000020B2
:10240800F84103085F4B2DE9F047002808BF18463C
:1024180017F0C2FAB0F10008C0F2958080200121BF
:10242800FEF7D8F80446002800F093801020012118
:10243800FEF7D0F8DFF868910646A8B1A9F5B665A9
:10244800514F95ED000A0A21FEF794FA33464F4999
:102458003A6820462FF0EAFAC3B21021304601222A
:102468005EB2FEF7D7F87EB9404617F03FFB20462C
:1024780080210122FEF7CEF84FF0FF36444803F0E2
:10248800D7FC3046BDE8F087404621464FF0FF3282
:10249800334617F001FB40B2864236DDE4E74FF0E1
:1024A800FF3221463346404617F0F6FA42B2012180
:1024B80010209642D8DCFEF78DF80A21064600283F
:1024C800D2D095ED010AFEF755FA7A682F493346BE
:1024D80020462FF0ABFA5FFA80FA1021304601222D
:1024E8004FFA8AFAFEF796F804350437BAF1000F66
:1024F800BAD0404621464FF0FF32534617F0CCFA87
:1025080046B2B245B0DC4D452CD001211020FEF773
:1025180061F80A2106460028A6D095ED010AFEF7C3
:1025280029FA7A681949334620462FF07FFAC3B250
:102538001021304601225EB20435FEF76BF80437ED
:10254800002E91D0ABE7134803F072FC4FF0FF3632
:1025580097E7114803F06CFC404617F0C7FA4FF0B4
:10256800FF368EE7404617F0C1FA80210122204647
:10257800FEF750F8002E81DB084803F059FC30467E
:10258800BDE8F0872041030804000020F841030853
:1025980098420308044203082C42030864420308D3
:1025A80040A600102DE9F041104D10222968074679
:1025B800002440F26D182FF0CBFAA0B1012408E0F6
:1025C8003846716801342FF0C3FA60B101344445CC
:1025D80009D06968102238462FF0BAFA2E1D102249
:1025E80008350028ECD12046BDE8F0810400002021
:1025F8002DE9F843044617460D462BF09DF9F320C4
:102608002BF0B6F9002F5DD07B1E2046296803F019
:1026180001092BF00BFA09282E460FD0204629680D
:102628002BF004FA092809D0204631682BF0FEF96E
:1026380000242BF093F92046BDE8F8834FF00108F9
:102648000434B8453ED0B9F1000F11D02E1D2046F4
:1026580031682BF0EBF9092805D0204631682BF0BA
:10266800E5F90928E0D108F101080434B84529D072
:1026780055F8281020462BF0D9F9092805EB8806CB
:10268800204605D055F828102BF0D0F90928CBD1D1
:1026980008F101080434204655F828102BF0C6F933
:1026A8000928A14605EB8806204605D055F82810CC
:1026B8002BF0BCF90928B7D108F10108B84509F190
:1026C8000404D5D10124B4E7F8B504460E46A0B3F6
:1026D8002BF032F9F3202BF04BF904F1784243F652
:1026E800FF739A4200F28280002504EB860606F109
:1026F800784443F6FF70844247D9A4F58043834267
:102708006ED80826B5423ED8022128462BF0AEF9ED
:10271800771B09282C46C7F3C0071FD0022128467B
:102728002BF0A4F9092819D0204602212BF09EF994
:1027380000242BF013F92046F8BD2BF0FDF8F32008
:102748002BF016F90024C0F60E0404F1774505F5C0
:102758007F03B3F5803F6BD22025C6E7582D12D0F2
:1027680005F10804B4420ED847B3022120462BF0E5
:102778007DF9092805D0022120462BF077F9092890
:10278800D2D1582C27D10124D3E70026BAE7022159
:10279800582C04F1080420462546F4D02BF066F99D
:1027A80002210928204603D02BF060F90928BBD163
:1027B800582D05F10804E6D0B442E4D80221204699
:1027C8002BF054F9022109282046E0D02BF04EF9CD
:1027D8000928A9D1DBE70834B442EFD90124A8E7D6
:1027E800A4F50041814214D810268BE7A2F5804158
:1027F800082599427FF679AFA2F500401025984246
:102808007FF673AFA2F5404218259A427FF66DAF66
:102818009BE7A4F54042824201D8182672E706F1E8
:10282800774606F57F04B4F5803F0BD2202669E78A
:102838004FF6FF7005F57E01C0F2010081420BD80A
:10284800282552E74FF6FF7006F57E03C0F2010017
:10285800834207D8282655E705F57C02824207D827
:10286800302542E706F57C01814207D8302649E742
:1028780005F57A03834207D8382536E706F57A0244
:10288800824207D838263DE705F57801814207D806
:1028980040252AE706F57804844207D8402631E720
:1028A80005F57602824207D848251EE706F5760325
:1028B800834208D8482625E705F5740585428CBF6C
:1028C8005825502511E706F57406B6F5003F2CBFCC
:1028D8005826502616E700BF0020C0F60E007047A5
:1028E80047F61023C1F6FF7353F82000704700BF66
:1028F8004AF2446330B4C1F2000300F113014FF40B
:102908004064156803EBC101C4F2000403EB8003C3
:10291800606A4D6052688A60C3F8200130BC704715
:10292800C1B20F292DE9F8438ABFA1F110070F465C
:10293800FFB28146481CC6B22D4D012031464FEAF0
:1029480087081CF001F805EB08046060B0B9642042
:1029580023F014FB012031461BF0F6FF606068B9D4
:10296800642023F00BFB012031461BF0EDFF606073
:1029780020B9642023F002FB606858B3002119F0E5
:10298800E9F9DFED1C7A80EE270AA84405EB470435
:10299800D8F804104FF000500022012305EB8705FA
:1029A800FCEEC00A10EE906AA4F8DC6109791BF00D
:1029B80045FED8F804304FF00050642219791BF016
:1029C80013FF4FF44062C4F20002506AC5F8640174
:1029D800BDE8F88303F01AFA4021074A09F1010318
:1029E80004462FF00DF82046BDE8F84303F020BA5E
:1029F80044A600100AD7233C245903082DE9F04FB8
:102A08007A4EDFF8F4C1DFF8F4B12DED028BA6F1B0
:102A180044084FF4406A83B09FED758ADFED758AEC
:102A280047464546002440F6FF79C4F2000A36E0DE
:102A3800D6F86021002A40D09CF8C01101F00400AB
:102A4800C1B200296FD0DBED400A01EE903A9BED50
:102A5800451AF8EE615A31EE602A9BED416A65EE3F
:102A6800822ABDEEC63AC2EEA83A106813EE101AD2
:102A780030EEA34AFDEEC44A14EE903A8B4206DBD0
:102A8800BDEEC15A15EE101A8B42B8BF1946016047
:102A9800013404360235102C08F104084CD03B19D7
:102AA80093F8B0020028F3D0B5F8FC314B4528BFA5
:102AB8004B46082CA5F8FC31BADD56F8403C002BF3
:102AC800E6D0DAF82410D6F8E0000A1A07EE102A41
:102AD800F8EE477AF4EEC87AF1EE10FA41DDDAF84A
:102AE8002410D6F820010A1A06EE902AB8EE660AD3
:102AF800B4EEC80AF1EE10FA57DC3F4B0193019887
:102B080090F8C03103F00402D1B2002937D0B5F8EB
:102B1800FC11D8F84420B1F5CC7F35DD494537D8CC
:102B28000B0198B232E01268013404360235102CD9
:102B3800116008F10408B2D197F8D12262B10023DC
:102B48005C1C07EBC301E0B284311BF09DFE97F8D3
:102B5800D10284422346F3DB03B0BDEC028BBDE80F
:102B6800F08F07EBC40191F8A4004207C5D19CF887
:102B7800C021214902F00400C2B201915AB9D8F823
:102B880044000023038083E741F6901010807FE71C
:102B98004FF6F070FAE71979CDF800C04FF0005001
:102BA8001BF0C6FBDDF800C0A9E704F1140107EB30
:102BB800C10000224260826019790F4BCDF800C035
:102BC8004FF00050019301231BF038FD56F8402CBC
:102BD8004FF00050117964221BF006FEDAF8241039
:102BE800DDF800C0C6F8201189E700BF88A60010EC
:102BF8000024744900F07F4518C6001090A000100A
:102C08002DE9F84F894EDFF82CA2DFF82CB2A6F197
:102C1800440400254FF440692DED028B27469FEDB3
:102C2800848AA846C4F2000933E0D6F86021002A55
:102C380038D09AF8C031126803F00400C1B229B143
:102C48009BED3F1AFCEEC11A11EE901A1160013586
:102C58006319043693F8B0220237AAB1082DA7F8F1
:102C6800FC8144DCD6F86001002840D09AF8C011F5
:102C7800026801F00403D8B228B19BED3F4AFCEE8C
:102C8800C44A14EE900A1060013504360237102D3C
:102C980055D0631993F8B0020028D8D0082DA7F8AA
:102CA800FC81C2DD56F8403C002BD0D0D9F8241066
:102CB800D6F8E0000A1A07EE102AF8EE477AF4EE82
:102CC800C87AF1EE10FA53DDD9F82410D6F820218D
:102CD800881A00EE100AF8EE400AF4EEC80AF1EE7F
:102CE80010FA00F387803168A1F80080AFE756F842
:102CF800403C002BC8D0D9F82410D6F8E020881A18
:102D080002EE100AF8EE422AF4EEC82AF1EE10FAA2
:102D180041DDD9F82400D6F82011421A03EE102A12
:102D2800F8EE433AF4EEC83AF1EE10FA46DC3068B1
:102D3800013504360237102DA0F80080A9D194F887
:102D4800D12200215AB14D1C04EBC1018431E8B2F3
:102D58001BF09AFD94F8D1329D422946F3DB0020FE
:102D6800C4F8A802C4F8AC02BDEC028BBDE8F88F29
:102D780004EBC50191F8A4004007B4D19AF8C0212A
:102D880002F00401C8B20028ADD04FF00050197904
:102D98001BF0CEFAA7E704EBC50191F8A420510770
:102DA800C5D19AF8C00100F00401CAB2002ABED009
:102DB8004FF0005019791BF0BBFAB8E705F1140081
:102DC80004EBC0010022C1F80480C1F80880197919
:102DD8004FF0005001231BF031FC56F8403C6422B0
:102DE8004FF0005019791BF0FFFCD9F82420C6F8E1
:102DF80020219CE705F1140104EBC1024FF00050BB
:102E0800C2F80480C2F808801979002201231BF057
:102E180015FC56F8403C4FF00050197964221BF01D
:102E2800E3FCD9F82400C6F820015CE788A6001066
:102E38000024744918C6001090A0001010B5E14C89
:102E4800D4EDAB7A30EE670A2DED048BB5EEC00AEF
:102E5800F1EE10FAB0EE609AF0EE418AB0EE618AB7
:102E680000F10584DFEDDA9AB4EE690AF1EE10FAA2
:102E7800D8BFF0EE409AD44A94F8B01292F90432CE
:102E8800206806EE103A9FEDD17AF8EEC60AD2ED28
:102E98007E6A20EE871AF7EE002A71EE661A81EE36
:102EA800812A32EE223AB9B390ED005ADFEDCA3AE0
:102EB80029EE854ADFEDC94AD0ED015A44EE234A8E
:102EC80029EE250A90ED026A40EE234A68EE860A4A
:102ED800D0ED036A40EEA34A28EE267ADFEDBC1A4D
:102EE80047EE234A24EE831AB4EEE11AF1EE10FA03
:102EF80003DB9FEDB82A77EE827AFDEEC12A12EE47
:102F0800902A002AC0F2BA8340F6FF718A42A8BF0D
:102F18000A4693B2A4F8FC3194F8B122BAB390ED02
:102F2800045ADFEDAD3A29EE854ADFEDAC4AD0ED23
:102F3800055A44EE234A29EE250A90ED066A40EE2A
:102F4800234A68EE860AD0ED076A40EEA34A28EEC7
:102F5800267ADFED9F1A47EE234A24EE831AB4EE51
:102F6800E11AF1EE10FA03DB9FED9A2A77EE827AE6
:102F7800FDEEC12A12EE903A002BC0F27D8340F696
:102F8800FF718B42A8BF0B469AB2A4F8FE2194F8B1
:102F9800B232BBB390ED085ADFED8F3A29EE854A7D
:102FA800DFED8E4AD0ED095A44EE234A29EE250A70
:102FB80090ED0A6A40EE234A68EE860AD0ED0B6A65
:102FC80040EEA34A28EE267ADFED811A47EE234A1F
:102FD80024EE831AB4EEE11AF1EE10FA03DB9FED4A
:102FE8007D2A77EE827AFDEEC12A12EE902A002A17
:102FF800C0F24C8340F6FF718A42A8BF0A4693B2DA
:10300800A4F8003294F8B322BAB390ED0C5ADFED6D
:10301800723A29EE854ADFED714AD0ED0D5A44EE39
:10302800234A29EE250A90ED0E6A40EE234A68EEFF
:10303800860AD0ED0F6A40EEA34A28EE267ADFED25
:10304800641A47EE234A24EE831AB4EEE11AF1EE2D
:1030580010FA03DB9FED5F2A77EE827AFDEEC12A34
:1030680012EE903A002BC0F21B8340F6FF718B42A0
:10307800A8BF0B469AB2A4F8022294F8B432BBB3A4
:1030880090ED105ADFED543A29EE854ADFED534AA8
:10309800D0ED115A44EE234A29EE250A90ED126A22
:1030A80040EE234A68EE860AD0ED136A40EEA34A42
:1030B80028EE267ADFED461A47EE234A24EE831AD5
:1030C800B4EEE11AF1EE10FA03DB9FED422A77EE37
:1030D800827AFDEEC12A12EE902A002AC0F2E2821C
:1030E80040F6FF718A42A8BF0A4693B2A4F8043298
:1030F80094F8B522BAB390ED145ADFED373A29EEB9
:10310800854ADFED364AD0ED155A44EE234A29EEBA
:10311800250A90ED166A40EE234A68EE860AD0ED3D
:10312800176A40EEA34A28EE267ADFED291A47EE01
:10313800234A24EE831AB4EEE11AF1EE10FA03DB07
:103148009FED242A77EE827AFDEEC12A12EE903A9C
:10315800002BC0F2978240F6FF718B42A8BF0B4646
:103168009AB2A4F8062294F8B632002B47D090ED14
:10317800185ADFED193A29EE854ADFED184AD0EDE5
:10318800195A44EE234A29EE250A90ED1A6A40EEB0
:10319800234A68EE860AD0ED1B6A40EEA34A28EE61
:1031A800267ADFED0B1A47EE234A24EE831AB4EE93
:1031B800E11AF1EE10FA13DB9FED062A77EE827A18
:1031C8000EE000BF44A6001024090020CDCC6C40BE
:1031D80000F07F459A99193E0AD7233C0000000069
:1031E800FDEEC12A12EE902A002AC0F2498240F66A
:1031F800FF718A42A8BF0A4693B2A4F8083294F82D
:10320800B722BAB390ED1C5A5FED0D3A29EE854A04
:103218005FED0E4AD0ED1D5A44EE234A29EE250AE9
:1032280090ED1E6A40EE234A68EE860AD0ED1F6ACA
:1032380040EEA34A28EE267A5FED1B1A47EE234A92
:1032480024EE831AB4EEE11AF1EE10FA03DB1FED57
:103258001F2A77EE827AFDEEC12A12EE903A002BF1
:10326800C0F21A8240F6FF718B42A8BF0B469AB291
:10327800A4F80A2294F8B832BBB390ED205A5FED57
:103288002A3A29EE854A5FED2B4AD0ED215A44EEC1
:10329800234A29EE250A90ED226A40EE234A68EE79
:1032A800860AD0ED236A40EEA34A28EE267A5FED1F
:1032B800381A47EE234A24EE831AB4EEE11AF1EEE7
:1032C80010FA03DB1FED3D2A77EE827AFDEEC12A64
:1032D80012EE902A002AC0F2E18140F6FF718A427C
:1032E800A8BF0A4693B2A4F80C3294F8B922BAB32C
:1032F80090ED245A5FED483A29EE854A5FED494A38
:10330800D0ED255A44EE234A29EE250A90ED266A87
:1033180040EE234A68EE860AD0ED276A40EEA34ABB
:1033280028EE267A5FED561A47EE234A24EE831AD2
:10333800B4EEE11AF1EE10FA03DB1FED5A2A77EE2C
:10334800827AFDEEC12A12EE903A002BC0F29281E9
:1033580040F6FF718B42A8BF0B469AB2A4F80E2222
:1033680094F8BA32BBB390ED285A5FED653A29EE6E
:10337800854A5FED664AD0ED295A44EE234A29EE84
:10338800250A90ED2A6A40EE234A68EE860AD0EDB7
:103398002B6A40EEA34A28EE267A5FED731A47EEB1
:1033A800234A24EE831AB4EEE11AF1EE10FA03DB95
:1033B8001FED782A77EE827AFDEEC12A12EE902A66
:1033C800002AC0F2758140F6FF718A42A8BF0A46FA
:1033D80093B2A4F8103294F8BB22BAB390ED2C5AE9
:1033E8005FED833A29EE854A5FED844AD0ED2D5A88
:1033F80044EE234A29EE250A90ED2E6A40EE234A30
:1034080068EE860AD0ED2F6A40EEA34A28EE267AA7
:103418005FED911A47EE234A24EE831AB4EEE11ABF
:10342800F1EE10FA03DB1FED952A77EE827AFDEEB6
:10343800C12A12EE903A002BC0F22A8140F6FF71A1
:103448008B42A8BF0B469AB2A4F8122294F8BC3259
:10345800BBB390ED305A5FEDA03A29EE854A5FED97
:10346800A14AD0ED315A44EE234A29EE250A90EDBF
:10347800326A40EE234A68EE860AD0ED336A40EE9F
:10348800A34A28EE267A5FEDAE1A47EE234A24EEC9
:10349800831AB4EEE11AF1EE10FA03DB1FEDB32A3A
:1034A80077EE827AFDEEC12A12EE902A002AC0F247
:1034B800F18040F6FF718A42A8BF0A4693B2A4F889
:1034C800143294F8BD22BAB390ED345A5FEDBE3A87
:1034D80029EE854A5FEDBF4AD0ED355A44EE234ABE
:1034E80029EE250A90ED366A40EE234A68EE860AF0
:1034F800D0ED376A40EEA34A28EE267A5FEDCC1A63
:1035080047EE234A24EE831AB4EEE11AF1EE10FADC
:1035180003DB1FEDD02A77EE827AFDEEC12A12EE88
:10352800903A002BC0F2C28040F6FF718B42A8BFD0
:103538000B469AB2A4F8162294F8BE32BBB390EDAB
:10354800385A5FEDDB3A29EE854A5FEDDC4AD0ED6B
:10355800395A44EE234A29EE250A90ED3A6A40EE9C
:10356800234A68EE860AD0ED3B6A40EEA34A28EE6D
:10357800267ADFED521A47EE234A24EE831AB4EE78
:10358800E11AF1EE10FA03DB9FED4D2A77EE827A0D
:10359800FDEEC12A12EE902A002AC0F2858040F67C
:1035A800FF718A42A8BF0A4693B2A4F8183294F869
:1035B800BF22BAB390ED3C5ADFED423A29EE854A74
:1035C800DFED414AD0ED3D5A44EE234A29EE250A63
:1035D80090ED3E6A40EE234A68EE860AD0ED3F6AD7
:1035E80040EEA34A28EE267A9FED341A47EE234A86
:1035F80024EE833AB4EEC13AFDEEC31AF1EE10FAA6
:10360800A8BF9FED2F1A11EE900AA8BF77EE817A16
:10361800002839DB40F6FF739842A8BF184681B2EC
:10362800A4F81A12C4EDAB7AFFF7E8F994EDAB2AC7
:10363800DFED237A32EE675AB5EEC05AF1EE10FA92
:1036480038D4DFED222AB4EE625AF1EE10FAC8BF80
:10365800B0EE625A84EDAB5A84EDA79AC4EDA88AFD
:1036680084EDA98AC4EDAA9ABDEC048B10BDDFEDE8
:10367800169A00E4002271E6002286E4002349E459
:103688000023BAE500226CE50021C9E70023B7E46E
:103698000022D9E6002312E70022E9E5002322E60A
:1036A8000022E8E4002321E500237EE7002241E729
:1036B80000238EE69FED045ACCE700BF00F07F455B
:1036C8009A99193E0AD7233C0000000000C07F44A5
:1036D80038B5134D95F8D13253B101240020E1B229
:1036E8001AF026FE95F8D122204601348242F5DCF4
:1036F8006968B9B108791AF06DFA0378022093B9AC
:10370800012022F03BFC064A506800791AF062FA60
:10371800017839B9012022F031FC002038BD00BF02
:1037280044A600100120AB688BB118791AF052FA40
:10373800027802205AB9012022F020FC94488168BE
:1037480008791AF047FA0378002BE3D00120EA68D9
:103758008AB110791AF03EFA0178022059B901208D
:1037680022F00CFC8A48C36818791AF033FA0278F8
:10377800002ACFD00120296989B108791AF02AFADC
:10378800037802205BB9012022F0F8FB8048026927
:1037980010791AF01FFA01780029BBD001206B6953
:1037A8008BB118791AF016FA027802205AB901205A
:1037B80022F0E4FB7648416908791AF00BFA03789D
:1037C800002BA7D00120AA698AB110791AF002FA51
:1037D8000178022059B9012022F0D0FB6C48836996
:1037E80018791AF0F7F90278002A93D00120E969CC
:1037F80091B108791AF0EEF90378022063B9012033
:1038080022F0BCFB6248C26910791AF0E3F901782A
:1038180000293FF47FAF01202B6A93B118791AF081
:10382800D9F90278022062B9012022F0A7FB584892
:10383800016A08791AF0CEF90378002B3FF46AAFD1
:1038480001206A6A92B110791AF0C4F9017802204D
:1038580061B9012022F092FB4D48436A18791AF0A9
:10386800B9F90278002A3FF455AF0120A96A91B14D
:1038780008791AF0AFF90378022063B9012022F021
:103888007DFB4348826A10791AF0A4F9017800296F
:103898003FF440AF0120EB6A93B118791AF09AF916
:1038A8000278022062B9012022F068FB3848C16A18
:1038B80008791AF08FF90378002B3FF42BAF012019
:1038C8002A6B92B110791AF085F90178022061B952
:1038D800012022F053FB2E48036B18791AF07AF96D
:1038E8000278002A3FF416AF0120696B91B108797C
:1038F8001AF070F90378022063B9012022F03EFB28
:103908002348426B10791AF065F9017800293FF4D1
:1039180001AF0120AB6B93B118791AF05BF902780B
:10392800022062B9012022F029FB1948816B08792D
:103938001AF050F90378002B3FF4ECAE0120EA6B43
:1039480092B110791AF046F90178022061B9012084
:1039580022F014FB0E48C36B18791AF03BF9027871
:10396800002A3FF4D7AE0120296CA9B108791AF0D2
:1039780031F9007888B9012022F000FB044B1A6C59
:1039880010791AF027F9017800293FF4C3AE01E055
:1039980044A60010012038BD38BD022038BD00BF44
:1039A80038B5084D95F8D13253B101240020E1B261
:1039B8001AF004FD95F8D122204601348242F5DC44
:1039C80038BD00BF44A600102DE9F04F2DED048B43
:1039D8007E48DFF80C9285B002F02AFA00217C4874
:1039E8004FF435722EF07AFAD9ED3E7A9FED7D7A52
:1039F800F4EEC77AF1EE10FA07DD9FED760AF4EEE1
:103A0800C07AF1EE10FA00F19384714B724A9FED7F
:103A1800738A1C461146F0EE488AB0EE489A1A603E
:103A28009A4600250126A2F58C7B01EB0517D7EDF8
:103A3800000AF5EE400AF1EE10FA40F0D58097ED55
:103A4800011AB5EE401AF1EE10FA40F0CD80D7ED2C
:103A5800021AF5EE401AF1EE10FA40F0C58097ED23
:103A6800032AB5EE402AF1EE10FA40F0BD80013588
:103A7800102D0AF1040A00F0ED80276807EB0517FE
:103A880097ED007AB5EE407AF1EE10FA14D197ED81
:103A9800010AB5EE400AF1EE10FA0DD1D7ED020A8F
:103AA800F5EE400AF1EE10FA06D197ED031AB5EEDD
:103AB800401AF1EE10FA30D0D9ED3C1ABCEEE12AEA
:103AC80006FA05F112EE103A194240F05E81DBED7C
:103AD8003D2ABCEEE23A13EE102A11EA020340F046
:103AE8006C81082D40F3E6825FFA85F8601980F84A
:103AF800B06294F8D01262184B1C82F8C08284F825
:103B0800D032D7ED013A97ED024AD7ED036A39EE84
:103B1800239A78EE848A38EE268A20686F1C00EB98
:103B28000718D8ED004AF5EE404A0AF10401F1EE13
:103B380010FA039114D198ED015AB5EE405AF1EEFE
:103B480010FA0DD1D8ED025AF5EE405AF1EE10FAFE
:103B580006D198ED036AB5EE406AF1EE10FA2FD05F
:103B6800D9ED3C7ABCEEE77A06FA07F317EE102A8D
:103B7800134240F010819BED3D0AFCEEC00A10EEA6
:103B8800900A034040F01481082F40F37D825FFAC9
:103B980087FCE71987F8B06294F8D032E218581C0D
:103BA80082F8C0C284F8D00298ED011AD8ED021A42
:103BB80098ED032A39EE019A78EEA18A38EE028A46
:103BC80002350AF1080A21682FE700BF485903089F
:103BD80044A60010EC518040A8A10010000000008D
:103BE80090A000100AD7233CD9ED3C2ABCEEE23A5B
:103BF80006FA05F013EE101A084240F0C080DBED1B
:103C08003D3ABCEEE34A14EE103A034040F0C98056
:103C1800082D5FFA85F840F328826219013582F889
:103C2800B06294F8D0022118431C81F8C08284F84D
:103C3800D032D7ED016AD7ED024A97ED035A102D1D
:103C480039EE269A78EEA48A38EE058A0AF1040A33
:103C58007FF413AFB0EE490A2DF01CFC5FED1F5A3C
:103C6800B4EEE50AF1EE10FA00F33D82B0EE680A10
:103C78002DF010FC1FED256AB4EEC60AF1EE10FA1D
:103C880000F32D82B0EE480A2DF004FC5FED2B7A8C
:103C9800B4EEE70AF1EE10FA00F31D826568A34E50
:103CA8006DB1012128790A461AF0C2F996F8D17245
:103CB80006F18402781C726486F8D1020125A16895
:103CC8009A4E89B16F1C0879FAB201211AF0B0F93D
:103CD800012D00F00C8296F8D13206F184055A1CA9
:103CE800B56486F8D1223D46E168904EA1B16F1CBB
:103CF8000879FAB201211AF09BF9012D00F0FB8135
:103D0800022D00F0238396F8D13206F184055A1C5F
:103D1800F56486F8D1223D462669844FD6B105F16F
:103D28000108012130795FFA88F21AF081F9022D31
:103D380000F0E681032D00F00383012D00F00B83D2
:103D480097F8D16207F18405731C3D6587F8D13275
:103D5800454600266369002B3ED006F101086F1C1A
:103D680018795FFA88F1FAB21AF062F9032D00F2B5
:103D78005282DFE815F0270057025C0261022846EC
:103D8800FEF7CEFD5FFA85F847E72846FEF7C8FD3F
:103D98005FFA85F8AAE63846FEF7C2FD5FFA87FCA7
:103DA800F7E605F11000FEF7BBFD5FFA85F834E78A
:103DB80007F11000FEF7B4FDE9E605F11000FEF783
:103DC800AFFD91E694F8D10204EBC6018431431C9F
:103DD800616584F8D1323D46A269DAB106F101087D
:103DE8006F1C10795FFA88F1FAB21AF021F9032DE5
:103DF80000F22782DFE815F004002C0231023602B7
:103E080094F8D11204EBC60284324B1CA26584F8E4
:103E1800D1323D46E069D8B106F101086F1C00793E
:103E28005FFA88F1FAB21AF003F9032D00F21F8243
:103E3800DFE815F00400240229022E0294F8D1329A
:103E480004EBC6028432581CE26584F8D1023D4670
:103E5800216AD9B106F101086F1C0879FAB25FFA34
:103E680088F11AF0E5F8032D00F21782DFE815F063
:103E780004001C022102260294F8D10204EBC602B7
:103E88008432411C226684F8D1123D46636ADBB154
:103E980006F101086F1C18795FFA88F1FAB21AF076
:103EA800C7F8032D00F20F82DFE815F004001402B2
:103EB80019021E0294F8D11204EBC60284324B1C7C
:103EC800626684F8D1323D46A06AD8B106F101088D
:103ED8006F1CFAB200795FFA88F11AF0A9F8032D7D
:103EE80000F20782DFE815F004000C021102160246
:103EF80094F8D13204EBC6028432581CA26684F8C6
:103F0800D1023D46E16AE9B106F101086F1C087962
:103F1800FAB25FFA88F11AF08BF8032D00F23481B7
:103F2800DFE815F0060039013E01430144A6001000
:103F380094F8D10204EBC6028432411CE26684F88C
:103F4800D1123D46236BDBB106F101086F1CFAB2B2
:103F580018795FFA88F11AF06BF8032D00F22A81BC
:103F6800DFE815F004002F013401390194F8D1126B
:103F780004EBC60284324B1C226784F8D1323D46DA
:103F8800606BD8B106F101086F1C00795FFA88F1FF
:103F9800FAB21AF04DF8032D00F22281DFE815F08D
:103FA800040027012C01310194F8D13204EBC60238
:103FB8008432581C626784F8D1023D46A16BC9B1AE
:103FC80006F101086F1C0879FAB25FFA88F11AF055
:103FD8002FF8032D00F21A81DFE805F002B6BBC006
:103FE80094F8D10204EBC6028432411CA26784F81B
:103FF800D1123D46E36BCBB106F101086F1C18796D
:104008005FFA88F1FAB21AF013F8032D00F2AD80C6
:10401800DFE805F002B0B57C94F8D11204EBC602D3
:1040280084324B1CE26784F8D1323D46206C88B15B
:10403800711C6A1CD2B20079C9B219F0F9FF032DBC
:1040480008D8DFE805F06A757B0204EBC6038A33FB
:10405800C4F88030FEF7D4FDB148012105B0BDECAD
:10406800048BBDE8F04F1AF09FBC4FF43D414FF46C
:10407800625200934046C0F20151C0F2010215F0AD
:10408800D1FDCAF8A401C8E55FFA87FC4FF43D41A9
:104098004FF462526046C0F201510093C0F201022F
:1040A800CDF808C015F0BEFD0399C1F8A401DDF8EC
:1040B80008C06EE55FFA85F84FF43D414FF462524F
:1040C80000934046C0F20151C0F2010215F0AAFD6A
:1040D800CAF8A4010AE5934801F0AAFEDEE5924871
:1040E80001F0A6FECEE5914801F0A2FEBEE506F17C
:1040F8008600B064F7E506F18601F1643D460BE6FB
:1041080007F1880139654546002623E604EBC60613
:104118008A36E6674646002588E794F8D13204EBEC
:10412800C6028432581CC4F8802084F8D10291E772
:1041380004EBC6018631C4F880108BE704EBC60097
:104148008830C4F8800085E704EBC6038633A3678C
:104158004FE704EBC6058835A5674AE704EBC606B2
:104168008A36A6674646002544E7042F3D467FF475
:104178005DAFCFE704EBC6008630E06755E704EB98
:10418800C6058835E56750E7042F3D467FF4DAAE6B
:1041980046460025D6E604EBC6038633E366D0E63A
:1041A80004EBC6058835E566CBE604EBC6068A3619
:1041B800E666EDE7042F3D467FF4E2AE464600256D
:1041C800DEE604EBC60086302067D8E604EBC605B9
:1041D80088352567D3E604EBC6068A362667EDE7F9
:1041E800042F3D467FF4EAAE46460025E6E604EB9A
:1041F800C60186316167E0E604EBC6058835656768
:10420800DBE604EBC6068A366667EDE7042F3D4613
:104218007FF4F0AEA6E7042F3D467FF4DDAD4646B9
:104228000025D9E504EBC60286326265D3E504EBC6
:10423800C60588356565CEE504EBC6068A3666652B
:10424800EDE7042F3D467FF4E5AD46460025E1E560
:1042580004EBC6008630A065DBE504EBC6058835AF
:10426800A565D6E504EBC6068A36A665EDE7042FF4
:104278003D467FF4EDAD46460025E9E504EBC60171
:104288008631E165E3E504EBC6058835E565DEE5DD
:1042980004EBC6068A36E665EDE7042F3D467FF453
:1042A800F5AD46460025F1E504EBC60386332366E3
:1042B800EBE504EBC60588352566E6E504EBC6069E
:1042C8008A362666EDE7042F3D467FF4FDAD464667
:1042D8000025F9E504EBC60086306066F3E504EBDB
:1042E800C60588356566EEE504EBC6068A36666659
:1042F800EDE7042F3D467FF405AE4646002501E66E
:1043080004EBC6018631A166FBE504EBC6058835DA
:10431800A566F6E504EBC6068A36A666EDE700BF95
:10432800F9280008EC590308C459030898590308E8
:104338000C4805B0BDEC048BBDE8F04F01F078BD2A
:1043480007F18A0038650025012603E506F1880093
:10435800F0643D46E0E407F186023A6545460026EA
:10436800F8E400BF585903082DE9F00FAA4B197A51
:1043780093F806C0FF2986B0024600F0D8800806E8
:104388002FD4987AFF2800F0D78010F0800F28D11A
:104398001C7BFF2C00F0D68014F0800F21D19D7B70
:1043A800FF2D00F0D58015F0800F1AD11E7CFF2E4E
:1043B80000F0D48016F0800F13D19F7CFF2F00F0FF
:1043C800D38017F0800F0CD192F81C80B8F1020F3F
:1043D80000F02681B8F1070F00F0CF80B8F1010F87
:1043E80004D0002006B0BDE8F00F7047187959795D
:1043F800894C41EA002589481561D0ED037A9879FE
:10440800BDEEE70AFF2810EE101A00F0A781E57943
:10441800C0F3C30400F00706A14245EA062000F0F5
:10442800F780A0F58065966926F8145001201C7A5B
:10443800794DFF2C00F0B0816D7A04F00706C4F3C3
:10444800C304A14245EA062000F0AE81A0F58065CC
:10445800966926F8145001209C7A6F4DFF2C00F0C5
:104468009681ED7A04F00706C4F3C304A14245EA35
:10447800062000F09681A0F58065966926F814500C
:1044880001201C7B644DFF2C00F07C816D7B04F0C7
:104498000706C4F3C304A14245EA062000F08A8156
:1044A800A0F58065966926F8145001209C7B5A4D2A
:1044B800FF2C00F06281ED7B04F00706C4F3C3040F
:1044C800A14245EA062000F07281A0F58065966950
:1044D80026F8145001201C7C4F4DFF2C00F0488119
:1044E8006D7C04F00706C4F3C304A14245EA062024
:1044F80000F06381A0F58065966926F814500120C4
:104508009B7C454CFF2BE47C00F02E8103F00700D8
:10451800C3F3C30344EA0024994292690CBFA4F58B
:10452800A974A4F5806422F8134001205AE7587A48
:10453800FF287FF456AF24E7374CE47AFF2C7FF44A
:1045480050AF25E7344D6D7BFF2D7FF44AAF26E74A
:10455800314EF67BFF2E7FF444AF27E72E4F7F7C4A
:10456800FF2F7FF43EAF28E7DFF8AC8098F8138080
:10457800B8F1FF0F7FF435AF26E793F8058093F87D
:10458800099093F807B0CDF80490C4445BFA8CFC0A
:1045980093F80BA093F80D90CDF808A051FA8CF180
:1045A800DDF804C0CDF80C905CFA81F150FA81F185
:1045B800029893F80FA0DDF80CC0CDF810A050FABF
:1045C80081F193F8119093F813A0CDF8149054FA50
:1045D80081F05CFA80F10498DDF814C093F8049037
:1045E80055FA81F150FA81F156FA81F05CFA80F1BE
:1045F80057FA81F05AFA80F1C8B281457FF4F1AEDA
:1046080008F01F0118F0800F11613FF4EAAE0CE0CA
:10461800A0F5A97507E700BF18A9001090A0001021
:104628001C79587940EA042111617F4998797F4CB7
:10463800D1ED030ABDEEE01AFF2811EE101A00F0C2
:10464800C880E47900F0030544EA0524C0F3830038
:104658006500814200F0E480A5F58065946924F83E
:104668001050187A714CFF2800F0AE80647A00F080
:10467800030544EA0524C0F383006500814200F085
:10468800CC80A5F58065946924F81050987A674C19
:10469800FF2800F0B180E47A00F0030544EA05241D
:1046A800C0F383006500814200F0AE80A5F5806507
:1046B800946924F81050187B5C4CFF2800F0978010
:1046C800647B00F0030544EA0524C0F38300650019
:1046D800814200F09680A5F58065946924F8105011
:1046E800987B524CFF287DD0E47B00F0030544EA18
:1046F8000524C0F383006500814200F08B80A5F596
:104708008065946924F81050187C484CFF2865D0BF
:10471800647C00F0030544EA0524C0F383006500C7
:10472800814274D0A5F58065946924F810509B7C6B
:104738003E48FF2BC07C43D003F0030440EA04202A
:10474800C3F383034000926999420CBFA0F5A97195
:10475800A0F5806122F81310012043E6E579FF2DCA
:104768007FF456AE002062E6FF2C7FF4CFAE39E628
:104778006D7CFF2D7FF4B5AEC2E6ED7BFF2D7FF497
:104788009BAEA8E66D7BFF2D7FF481AE8EE6ED7AB9
:10479800FF2D7FF467AE74E66D7AFF2D7FF44DAE82
:1047A8005AE6A0F5A97568E6A0F5A97550E6A0F542
:1047B800A9758CE6A0F5A97574E6A0F5A9759BE620
:1047C800FF28B9D101200DE6647AFF2C7FF44FAFA2
:1047D8005CE7E479FF2C7FF435AF42E7647CFF2C7B
:1047E80097D1A4E7E47BFF2C7FF47FAF8CE7647B51
:1047F800FF2C7FF466AF73E7E47AFF2C7FF44CAFAD
:1048080059E7A5F5A97568E7A5F5A97550E7A5F5D0
:10481800A97589E7A5F5A97573E7A5F5A97532E71F
:10482800A5F5A9751AE700BF90A0001018A90010F7
:104838004FF44062C4F200020E4B526A30B41C6856
:1048480041F64C55141BAC4201D900241C751C7D43
:104858001A60621C1B19D4B2102C1971054903D0B7
:104868000C75002030BC704700230B7530BCFFF777
:104878007BBD00BF18A9001030B50446182283B0CC
:104888000D460E4800212DF029FB237F0022072B1F
:1048980009D0009228464FF4E1314023FCF71AFB77
:1048A800606003B030BD40F6BE3100922846C0F2C9
:1048B80002014023FCF70EFB6060F2E718A9001024
:1048C8002DE9F0472DED028B714B9A8918885F8886
:1048D8009E88DD881C895989C3F8D821C3F8C0018E
:1048E80003F5E07EC3F8C471C3F8C861C3F8CC51BE
:1048F800C3F8D041C3F8D41103F10E0223E0D189E3
:104908004018C3F8C001BCF802104144C3F8C411F0
:10491800BCF80410CF19C3F8C871BCF806108E197A
:10492800C3F8CC61BCF808707D19C3F8D051BCF845
:104938000A100C19C3F8D441BCF80C6006EB09073F
:10494800C3F8D8711C32B2F800C0D3F8C411D3F838
:10495800C871D3F8CC61D3F8D051D3F8D441DFF87B
:1049680030A16044C3F8C001B2F802808844C3F89B
:10497800C481B2F804904F44C3F8C871B2F806C0B5
:104988006644C3F8CC6111894D19C3F8D051B2F807
:104998000A90D3F8D8114C44C3F8D441B2F80C901B
:1049A80002F10E0C8944F445C3F8D891A7D12AF036
:1049B80067FD35A3D3E900232BF018F82AF094FEFD
:1049C800CAF8DC0140462AF05BFD2FA3D3E9002397
:1049D8002BF00CF82AF088FE08EE100A38468AED0B
:1049E800788A2AF04DFD28A3D3E900232AF0FEFF98
:1049F8002AF07AFECAF8E40130462AF041FD22A3E3
:104A0800D3E900232AF0F2FF2AF06EFECAF8E80183
:104A180028462AF035FD1CA3D3E900232AF0E6FF37
:104A28002AF062FECAF8EC0120462AF029FD16A3F6
:104A3800D3E900232AF0DAFF2AF056FECAF8F0017B
:104A480048462AF01DFD10A3D3E900232AF0CEFF23
:104A58002AF04AFE9AF80532CAF8F4010AEB8300F4
:104A680090ED777ADAED827ADFED0A0A27EE270AE7
:104A780028EE208A8AED7E0A8AED7F8ABDEC028BB9
:104A8800BDE8F087AFF30080000000606666FA3E7C
:104A98002409002055551541744B2DE9F04FD3EDED
:104AA800007ABDEEE70A2DED028B10EE100A704D6C
:104AB80000224FF0804101289BB085F80522C5F8F7
:104AC800081200F0D68101214FF4807029F08EF988
:104AD80046F27040C4F2020042F24C0628F012FD81
:104AE800C4F201060D954FF48063E02546F270404C
:104AF80000244FF4006204274FF00308C4F20200B8
:104B08000BA90C960F9511934FF400564FF40033F0
:104B18004FF48075129215930B940E94109413967B
:104B28001495169718941994CDF85C8028F0E0FD38
:104B380046F270400121C4F2020028F02FFE0DEB6E
:104B4800070028F0D3FA0DEB07000194029428F02F
:104B5800B5FA05A828F0A8FA4FF400500725012651
:104B6800C4F2010005A905948DF818608DF8196044
:104B7800079409948DF8285028F06EFA4FF40050E5
:104B88000A2132462B46C4F2010028F0BFFA4FF43E
:104B980000500B2102222B46C4F2010028F0B6FA7D
:104BA8004FF400500A212B46C4F20100424628F077
:104BB800ADFA4FF4005039463A462B46C4F201008C
:104BC80028F0A4FA05214FF400500A462B46C4F2F7
:104BD800010028F09BFA06214FF400500A462B46A4
:104BE800C4F2010028F092FA4FF400502A462B46EE
:104BF8002946C4F2010028F089FA4FF400503146E2
:104C0800C4F2010028F0E0FA4FF400503146C4F233
:104C1800010028F0CFFA4FF400503146C4F20100E9
:104C280028F06AFA4FF40050114CC4F2010028F041
:104C3800BBFA0A2021F0A2F9A38920886788A688F0
:104C4800E58821896289C4F8D831C4F8C00104F51F
:104C5800E07EC4F8C471C4F8C861C4F8CC51C4F883
:104C6800D011C4F8D42104F10E0321E024A50010CA
:104C780024090020DA898018C4F8C0014A884A4407
:104C8800C4F8C4218A884244C4F8C821CA88D719FC
:104C9800C4F8CC710A899619C4F8D0614F897D1976
:104CA800C4F8D451898901EB0A02C4F8D8211C330D
:104CB800B3F800C0D4F8C421D4F8C871D4F8CC61D2
:104CC800D4F8D051D4F8D411DFF8F0B16044C4F866
:104CD800C001B3F802909144C4F8C491B3F804A099
:104CE800D4F8D8210AEB0708C4F8C881DF88BF19AF
:104CF800C4F8CC711E897619C4F8D0615D896D1825
:104D0800C4F8D451B3F80CC003F10E010CEB020A3D
:104D18007145C4F8D8A1ADD12AF0B2FB65A3D3E997
:104D280000232AF063FE2AF0DFFCCBF8DC014846BA
:104D38002AF0A6FB5FA3D3E900232AF057FE2AF046
:104D4800D3FC08EE100A40468BED788A2AF098FBCF
:104D580058A3D3E900232AF049FE2AF0C5FCCBF872
:104D6800E40138462AF08CFB52A3D3E900232AF049
:104D78003DFE2AF0B9FCCBF8E80130462AF080FB6A
:104D88004CA3D3E900232AF031FE2AF0ADFCCBF87E
:104D9800EC0128462AF074FB46A3D3E900232AF045
:104DA80025FE2AF0A1FCCBF8F00150462AF068FB5A
:104DB80040A3D3E900232AF019FE2AF095FC9BF8BA
:104DC8000532CBF8F4010BEB830090ED777ADBED3D
:104DD800820ADFED331A27EE201AB1EE042A28EEF4
:104DE800218AB4EEC21AF1EE10FA8BED7E1A8BED21
:104DF8007F8A3AD4F2EE012AB4EEE21AF1EE10FA02
:104E08001FD49FED283AB4EEC31AF1EE10FA3DD440
:104E1800F3EE013AB4EEE31AF1EE10FA32D49FED54
:104E2800224AB4EEC41AF1EE10FA33D4DFED1F4A69
:104E3800B4EEE41AF1EE10FA06D506258BF8045202
:104E480002E002208BF8040200F0E0FF4021054652
:104E5800174A94F904322CF0D3FD284600F0E8FFF5
:104E68001BB0BDEC028BBDE8F08F01258BF8045216
:104E7800EAE745F25554C4F21514C5F8084285F816
:104E8800050220E604228BF80422DDE703238BF8D1
:104E98000432D9E705218BF80412D5E7AFF3008077
:104EA80055551541CDCC4C416666AA416666CE4142
:104EB800145A0308000000606666FA3E24090020C0
:104EC8002DE9F04F2DED088BE948DFF8E0B3DFF866
:104ED800E093E84EDFF8DCA3E74CDFF8DC8383B02F
:104EE80000F0A6FF9FEDE59A9FEDE5AA9FEDE5BAD4
:104EF800DFEDE5AA00275D464CF20461C1F200012E
:104F08000878002120F0C4F84CF21862C1F20002BF
:104F180092F8C03103F00400C1B2002900F06E819C
:104F2800DAED037ABDEEE70AD6F8D82010EE103A8B
:104F380032F9130007EE100ADAED190AB8EEC71AAB
:104F4800B4EEE01AF1EE10FA04DC94F840050028FB
:104F580000F05582012010F0B3FD94F84015C64AC0
:104F6800002940F01482DAED031ABDEEE12AD6F8E2
:104F7800D83012EE100A33F9101008EE901ADAED54
:104F8800192AB8EE683A9FEDC14A73EE623ADFED2E
:104F9800C05A63EE844A9AED135A84EEA56A66EE07
:104FA800056ABDEEE67A17EE101A002940F31A8258
:104FB80040F6FF739942A8BF194601EE101AF8EEA1
:104FC800C18A4AF24462C1F20002D2EDAA1AF5EE91
:104FD800401AF1EE10FA00F073819BED080AD4ED47
:104FE800030A0CF0E7F99AED1B2AF1EE422A82EE49
:104FF800893AB4EEC30AF1EE10FA08D482EE093AFF
:10500800B4EEC30AF1EE10FAD8BFB0EE403ADBEDC9
:10501800083A33EE230A0CF0ADF994F84035032B27
:105028008BED080A00F0E1819AED054ADAED044AB1
:10503800BDEEC45AD6F8D82015EE101AFDEEE45A83
:1050480032F9110015EE901A32F9112006EE100A05
:1050580006EE902AB8EEC68ADAED14BAB8EEE60A79
:10506800DAED157A68EE2B0A20EE277A012BC5EDCA
:10507800020A85ED037A40F2BD81A36AE06ACBF8A3
:105088001030CBF814009AED061AFDEEC11AD6F8C6
:10509800D81011EE902A31F9123002EE903A9AEDBA
:1050A800172AB8EEE23AB4EEC23AF1EE10FA40F33B
:1050B800CC8073EE429A9AED164A69EE849AD9F832
:1050C800001069EE8B4ACBF8201064EEAA9AE160D2
:1050D8004FF496776F489BED020AFBF72BFC6E485E
:1050E8008BED020A9BED030AFBF724FC6B488BED62
:1050F800030A9BED040AFBF71DFC69488BED040AC3
:105108009BED050AFBF716FC664ADBED045A92EDA7
:10511800008A12ED016A60EE086A65EE88BA40EE10
:1051280006BA55EE866AB0EE405ADBED037A9BED7F
:10513800020A9AED127A36EE800A77EEAB0AB5EEDD
:10514800407AF1EE10FA8BED055A8BED060ACBED9D
:10515800070A00F0F280B7EE001AB4EE417AF1EED9
:1051680010FA00F05E819FED468AF0EE48BA002FF3
:1051780051D04D4ADBF88C00D2ED000AB0EE690A36
:1051880005F0EAFB9AED1A2AF1EE421AB4EEE18A2A
:10519800F1EE10FA35D4B4EE428AF1EE10FAF4EEDC
:1051A800E1BACCBFB0EE421AB0EE481AF1EE10FAEE
:1051B8002ED4F4EE42BAF1EE10FACCBFF0EE420A69
:1051C800F0EE6B0AB4EEE10AF1EE10FA08D4B4EE90
:1051D800420AF1EE10FACCBFF0EE421AF0EE401A95
:1051E800B0EE680AFDF72AFEDBF80410D8F8203084
:1051F800481CCBF89C30CBF804007DE6FDF700FD99
:10520800F2E7F4EEE1BAF1EE10FAB0EE611AD0D599
:10521800F0EE610AD6E7DBF89820DBF88C300192D3
:10522800D9ED000A9BED080A00930CF0C3F8019829
:10523800F0EE400A9FED120A05F08EFB1A4900981D
:10524800D1ED000A05F088FB9CE7F1EE423AB4EE96
:10525800E33AF1EE10FA40F1D780B4EEC23AF1EE3B
:1052680010FAD8BF73EE029A7FF725AF21E700BF87
:10527800285A030828C9001060BB00100000C84362
:105288000000000035FA8E3CE73EBB3A00F07F454F
:1052980000002F4454A900106CA9001084A9001024
:1052A8009CA900102C170020C839012030A9001033
:1052B8001C17002090A00010F8CC0010000000007F
:1052C8001FED020AD9F80010DBF88800E160F0EE63
:1052D800400ACBF8201005F01FFC1FED080ADBF888
:1052E8008400F0EE400A05F017FC1FED0C0ADBF80D
:1052F8008C00F0EE400A05F00FFC1FED100ADBF8F9
:105308009400F0EE400A05F007FC1FED140ADBF8E4
:105318009000F0EE400A05F0FFFB1FED180ADBF8DD
:105328009800F0EE400A05F0F7FB94F840050228D3
:105338007FF453AE11F04CF84FE652ED030AD5F85E
:10534800940005F009FB4B4BD5F88800D3ED000A13
:10535800B0EE408A9FED480A05F0FEFA4749D5F8B5
:105368009000D1ED000A70EE08BA95ED070A05F035
:10537800F3FA4348B0EE408AD0ED000A9FED3E0AAA
:10538800D5F8840005F0E8FA30EE088AEFE64CF22A
:10539800DC73C1F20003D06CD3F8481191ED008A98
:1053A80092ED0C0AF1EE480A019205F0D5FA019A3D
:1053B800D06CDFED34BAD0ED027A20EE2B0ADFEDA7
:1053C800320AF5EEC07AF1EE10FAC0EE206A7FF5E7
:1053D800E8ADBDEEE67A80ED02AA17EE101A0029B4
:1053E8003FF7E6ADF7EE008AEBE585ED02AA85ED1D
:1053F80003AA42E685ED04AA85ED05AA43E610F066
:105408005FFBFDF7FDFBEFE6002F3FF463AED9F835
:105418000000013FCBF82000E060DFED179ABFB233
:1054280058E61A49D5F88830D5F89400D1ED000A25
:10543800009305F091FA009A0E48D0ED000A104644
:1054480005F08AFA0D49D5F88430D5F89000D1EDE9
:10545800000AF0EE40BA95ED070A009305F07CFAD1
:105468000748009AD0ED000A104605F075FAB0EE2C
:10547800408A7CE6C439012000000000241700207F
:10548800C039012000F07F4500002F44201700207C
:105498002DE9F04F2DED048B4AF6301845F64020E3
:1054A8008BB0C1F20008DFED808A9FED808AC0F6DC
:1054B80003009FED7F9A00F0BBFC0021A02240462C
:1054C8002CF00CFD08F12400B0EE680AF0EE490A51
:1054D800B0EE481A774CFBF70FFA08F13C00B0EE33
:1054E800680AF0EE490AB0EE481AFBF705FA08F127
:1054F8005400B0EE680AF4EE000AB0EE481AFBF762
:10550800FBF904F1040BB0EE680AF4EE000AB0EE01
:10551800481A08F16C00FBF7EFF904F114070BF1D6
:105528000C00002604F1080A04F10C0904F11C051A
:105538008DE881000BF11400594652464B46029003
:1055480003952046049605960696079605F0E2F917
:10555800C8F888000BF10C008DE881000BF11407E6
:10556800594652464B46029703952046049605969F
:105578000696079605F0CEF904F1340704F1300ECB
:1055880004F1380C04F13C05CDF800E004F12401E5
:1055980004F1280204F12C03C8F884000197CDF81F
:1055A80008C0039504F12000049605960696079610
:1055B80005F0B0F904F1440CC8F88C000CF11000A7
:1055C80004F1400504F1580704F1480B04F14C0AB2
:1055D80004F1500901900CF1180061465A465346EF
:1055E80002970390CDF800902846049605960696F3
:1055F8000796CDF824C005F08DF9DDF824C0C8F869
:10560800940002970CF110000CF1180761465A46F5
:105618005346019003972846CDF8009004960596C6
:105628000696079605F076F904F17C0504F1700EEC
:1056380004F1780C04F1740704F1680204F16C03B6
:1056480004F16401CDF800E0CDF808C0C8F8900076
:10565800039504F16000019704960596069607964F
:1056680005F058F945F65021C8F89800C0F603012E
:10567800C820FAF7F9FF40F630340546C2F20004B4
:1056880044F6C960C0F6000031464CF6050205F53F
:105698004773256020F034FB88F800000BB0BDECA0
:1056A800048BBDE8F08F00BF0AD7233B0000000041
:1056B800CDCCCC3D00A1001070B5214B1A1802F5D5
:1056C800885500EB40062C7802F5875204EB44011C
:1056D800F60106EB8106117E06F59D66A14282B0B1
:1056E8001E4404D0127C012A14D0022A01D002B030
:1056F80070BD03EB8000D0F88404418903890AB2A5
:1057080019B28A42F3D1716832890E4B009619F0AA
:10571800DBFD0FE003EB8000D0F8840490F84C30F8
:10572800002BE4D171683289064B0096FBF752FAD8
:105738000028DCD0013404F01F042C70D7E700BF28
:10574800D0A90010515700080368BFF35F8FD3E852
:105758004F2F013AC3E8412F0029F8D1D2B2022ACB
:10576800BFF35F8F01D100211970807AFFF7A4BFC2
:105778002DE9F04FB64DB74F93B005F5875B05F5AA
:105788008C560796CDF824B0CDF804B0CDF828B0E3
:105798005B460799099C019ACDF808B003F1110AF4
:1057A8000A9BCDF82CB05846CDF80CB0CDF830B0E7
:1057B800CDF810B00F310830093412320A3307918E
:1057C80008900B99029809940192039C0C9A0A93E9
:1057D800049BCDF834B013300B3114340C3215332C
:1057E800CDF814B0CDF838B0CDF818B0CDF83CB03D
:1057F80002900B9103940C9204930D9805990E9CBA
:10580800069A0F9B0E340D30163117320F330E9453
:105818004FF0000808360BF1100B0D900591069219
:105828000F932C46012020F0A9FBA8780DF1470121
:105838001FF066FF8146002846D001783068CE46C2
:1058480029B917E0184633601EF8011F91B140F2DC
:10585800FF13421CC8F200030A2903EA0203F3D02B
:10586800002B3954EEDA581E6FEAC0516FEAD15353
:105878000133E7E740F2FF11421CC8F20001114072
:105888000A2300293B54C0F27982079B316093F9BF
:10589800000014F05DF9D5F8A41409B1484688470A
:1058A800D5F8A8240AB148469047D5F8AC340BB1CE
:1058B80048469847D5F8B01409B148468847D5F8FE
:1058C800B4240AB1484690474CF2DC70C1F200009B
:1058D80040781FF0B7FB98B9D5F8B83403B19847AA
:1058E800D5F8BC1401B18847D5F8C02402B1904757
:1058F800D5F8C40400B18047D5F8C83403B1984737
:10590800404618F0F7FF9BF80010002202298DF896
:10591800442000F02B82032900F02582012900F0A1
:10592800F6819AF80000012302288DF8443000F02F
:10593800E681032800F0E081012800F0AF81019B97
:105948001878022188428DF8441000F09F810328BE
:1059580000F09981012800F06681029803780322FB
:10596800022B8DF8442000F05681032B00F0508163
:10597800012B00F01D81039A1078042102288DF86C
:10598800441000F00D81032800F00781012800F081
:10599800D48004990878052302288DF8443000F053
:1059A800C480032800F0BE80012800F08B80059891
:1059B8000178062202298DF844207CD0032977D06B
:1059C800012949D0069A1078072302288DF8443017
:1059D80037D0032832D0012804D019F095FB08F1FC
:1059E80001081FE7D4F8A0040028F6D0FBF71CFC38
:1059F8000028F2D00F9908780028EED094F8CC242B
:105A0800824200F0C88194F8CD34834200F0C1810D
:105A180094F8CE14814200F0F68194F8CF248242A3
:105A280000F0EF8194F8D0348342D6D1042005EBFE
:105A3800800111A8D1F8D4249047CEE71CF08AF948
:105A4800D6E7D4F8A0040028C7D019F0FDFACFE7AC
:105A5800D0A90010380B0020D4F89C040028B1D03D
:105A6800FBF7E2FB0028ADD00E9B18780028A9D0E0
:105A780094F8CC14814200F0888194F8CD248242B5
:105A880000F0858194F8CE34834200F0B88194F810
:105A9800CF14814200F0AB8194F8D024824291D196
:105AA800042005EB800311A8D3F8D414884789E7AC
:105AB8001CF050F9D6E7D4F89C04002882D019F0DD
:105AC800C3FACFE7D4F8980400283FF470AFFBF787
